{
	"data": {
		"bytecode": {
			"linkReferences": {},
			"object": "60806040523480156200001157600080fd5b506040516200284d3803806200284d833981810160405281019062000037919062000217565b620000576200004b620000e160201b60201c565b620000e960201b60201c565b81600260006101000a81548173ffffffffffffffffffffffffffffffffffffffff021916908373ffffffffffffffffffffffffffffffffffffffff16021790555080600160006101000a81548173ffffffffffffffffffffffffffffffffffffffff021916908373ffffffffffffffffffffffffffffffffffffffff16021790555050506200025e565b600033905090565b60008060009054906101000a900473ffffffffffffffffffffffffffffffffffffffff169050816000806101000a81548173ffffffffffffffffffffffffffffffffffffffff021916908373ffffffffffffffffffffffffffffffffffffffff1602179055508173ffffffffffffffffffffffffffffffffffffffff168173ffffffffffffffffffffffffffffffffffffffff167f8be0079c531659141344cd1fd0a4f28419497f9722a3daafe3b4186f6b6457e060405160405180910390a35050565b600080fd5b600073ffffffffffffffffffffffffffffffffffffffff82169050919050565b6000620001df82620001b2565b9050919050565b620001f181620001d2565b8114620001fd57600080fd5b50565b6000815190506200021181620001e6565b92915050565b60008060408385031215620002315762000230620001ad565b5b6000620002418582860162000200565b9250506020620002548582860162000200565b9150509250929050565b6125df806200026e6000396000f3fe6080604052600436106100a75760003560e01c8063d4ddce8a11610064578063d4ddce8a146101bc578063ea75aa8f146101f9578063edca914c14610224578063f23a6e611461022e578063f2fde38b1461026b578063f7d9757714610294576100a7565b806301ffc9a7146100ac5780632c1449e1146100e9578063715018a6146101145780638da5cb5b1461012b578063bc197c8114610156578063d407cee714610193575b600080fd5b3480156100b857600080fd5b506100d360048036038101906100ce919061137b565b6102bd565b6040516100e091906113c3565b60405180910390f35b3480156100f557600080fd5b506100fe610337565b60405161010b919061145d565b60405180910390f35b34801561012057600080fd5b5061012961035d565b005b34801561013757600080fd5b50610140610371565b60405161014d9190611499565b60405180910390f35b34801561016257600080fd5b5061017d60048036038101906101789190611724565b61039a565b60405161018a9190611802565b60405180910390f35b34801561019f57600080fd5b506101ba60048036038101906101b59190611856565b6103af565b005b3480156101c857600080fd5b506101e360048036038101906101de91906118a9565b61081b565b6040516101f091906118e5565b60405180910390f35b34801561020557600080fd5b5061020e610833565b60405161021b9190611921565b60405180910390f35b61022c610859565b005b34801561023a57600080fd5b506102556004803603810190610250919061193c565b610a66565b6040516102629190611802565b60405180910390f35b34801561027757600080fd5b50610292600480360381019061028d91906119d3565b610b8b565b005b3480156102a057600080fd5b506102bb60048036038101906102b69190611a00565b610c0e565b005b60007f4e2312e0000000000000000000000000000000000000000000000000000000007bffffffffffffffffffffffffffffffffffffffffffffffffffffffff1916827bffffffffffffffffffffffffffffffffffffffffffffffffffffffff19161480610330575061032f82610d78565b5b9050919050565b600160009054906101000a900473ffffffffffffffffffffffffffffffffffffffff1681565b610365610de2565b61036f6000610e60565b565b60008060009054906101000a900473ffffffffffffffffffffffffffffffffffffffff16905090565b600063bc197c8160e01b905095945050505050565b6000339050600060036000868152602001908152602001600020540361040a576040517f08c379a000000000000000000000000000000000000000000000000000000000815260040161040190611a9d565b60405180910390fd5b8160ff16600360008681526020019081526020016000205461042c9190611aec565b83101561046e576040517f08c379a000000000000000000000000000000000000000000000000000000000815260040161046590611b92565b60405180910390fd5b8160ff16600260009054906101000a900473ffffffffffffffffffffffffffffffffffffffff1673ffffffffffffffffffffffffffffffffffffffff1662fdd58e30876040518363ffffffff1660e01b81526004016104ce929190611bb2565b602060405180830381865afa1580156104eb573d6000803e3d6000fd5b505050506040513d601f19601f8201168201806040525081019061050f9190611bf0565b101561051a57600080fd5b82600160009054906101000a900473ffffffffffffffffffffffffffffffffffffffff1673ffffffffffffffffffffffffffffffffffffffff166370a08231836040518263ffffffff1660e01b81526004016105769190611499565b602060405180830381865afa158015610593573d6000803e3d6000fd5b505050506040513d601f19601f820116820180604052508101906105b79190611bf0565b10156105f8576040517f08c379a00000000000000000000000000000000000000000000000000000000081526004016105ef90611c69565b60405180910390fd5b82600160009054906101000a900473ffffffffffffffffffffffffffffffffffffffff1673ffffffffffffffffffffffffffffffffffffffff1663dd62ed3e83306040518363ffffffff1660e01b8152600401610656929190611c89565b602060405180830381865afa158015610673573d6000803e3d6000fd5b505050506040513d601f19601f820116820180604052508101906106979190611bf0565b10156106d8576040517f08c379a00000000000000000000000000000000000000000000000000000000081526004016106cf90611cfe565b60405180910390fd5b61072e816106e4610371565b85600160009054906101000a900473ffffffffffffffffffffffffffffffffffffffff1673ffffffffffffffffffffffffffffffffffffffff16610f24909392919063ffffffff16565b600260009054906101000a900473ffffffffffffffffffffffffffffffffffffffff1673ffffffffffffffffffffffffffffffffffffffff1663f242432a308387866040518563ffffffff1660e01b815260040161078f9493929190611d86565b600060405180830381600087803b1580156107a957600080fd5b505af11580156107bd573d6000803e3d6000fd5b505050508073ffffffffffffffffffffffffffffffffffffffff167fb911d7e2ec7c85dd17dc5dbf9c086e0ade9a12a268015519a2a5f93ce5754fea8585854260405161080d9493929190611ded565b60405180910390a250505050565b60036020528060005260406000206000915090505481565b600260009054906101000a900473ffffffffffffffffffffffffffffffffffffffff1681565b662386f26fc100003410156108a3576040517f08c379a000000000000000000000000000000000000000000000000000000000815260040161089a90611e7e565b60405180910390fd5b6000600260009054906101000a900473ffffffffffffffffffffffffffffffffffffffff1673ffffffffffffffffffffffffffffffffffffffff1633700100000000000000000000000000000000600160405160240161090593929190611e9e565b6040516020818303038152906040527f156e29f6000000000000000000000000000000000000000000000000000000007bffffffffffffffffffffffffffffffffffffffffffffffffffffffff19166020820180517bffffffffffffffffffffffffffffffffffffffffffffffffffffffff838183161783525050505060405161098f9190611f46565b6000604051808303816000865af19150503d80600081146109cc576040519150601f19603f3d011682016040523d82523d6000602084013e6109d1565b606091505b5050905080610a15576040517f08c379a0000000000000000000000000000000000000000000000000000000008152600401610a0c90611fa9565b60405180910390fd5b3373ffffffffffffffffffffffffffffffffffffffff167fb31b775ff4413dcc480f9fb7c6546bfde26f1504eab9f4f6e606ec8d0561f02342604051610a5b91906118e5565b60405180910390a250565b6000600260009054906101000a900473ffffffffffffffffffffffffffffffffffffffff1673ffffffffffffffffffffffffffffffffffffffff163373ffffffffffffffffffffffffffffffffffffffff1614610af8576040517f08c379a0000000000000000000000000000000000000000000000000000000008152600401610aef90612015565b60405180910390fd5b60008303610b3b576040517f08c379a0000000000000000000000000000000000000000000000000000000008152600401610b3290612081565b60405180910390fd5b7f1650d49bac940346e34bac1dde642598b57ba618d7a0c005a91257851cae2c2486868686604051610b7094939291906120a1565b60405180910390a163f23a6e6160e01b905095945050505050565b610b93610de2565b600073ffffffffffffffffffffffffffffffffffffffff168173ffffffffffffffffffffffffffffffffffffffff1603610c02576040517f08c379a0000000000000000000000000000000000000000000000000000000008152600401610bf990612158565b60405180910390fd5b610c0b81610e60565b50565b610c16610de2565b60008203610c59576040517f08c379a0000000000000000000000000000000000000000000000000000000008152600401610c50906121c4565b60405180910390fd5b60008103610c9c576040517f08c379a0000000000000000000000000000000000000000000000000000000008152600401610c9390612230565b60405180910390fd5b8060036000848152602001908152602001600020819055507f18e75bb8c091a6448c12a2023f055b2714c151b941a91df8b9938788769ffe13828242604051610ce793929190612250565b60405180910390a1610d2e6040518060400160405280600c81526020017f616464726573732074686973000000000000000000000000000000000000000081525030610fad565b610d746040518060400160405280600d81526020017f61646472657373206f776e657200000000000000000000000000000000000000815250610d6f610371565b610fad565b5050565b60007f01ffc9a7000000000000000000000000000000000000000000000000000000007bffffffffffffffffffffffffffffffffffffffffffffffffffffffff1916827bffffffffffffffffffffffffffffffffffffffffffffffffffffffff1916149050919050565b610dea611049565b73ffffffffffffffffffffffffffffffffffffffff16610e08610371565b73ffffffffffffffffffffffffffffffffffffffff1614610e5e576040517f08c379a0000000000000000000000000000000000000000000000000000000008152600401610e55906122d3565b60405180910390fd5b565b60008060009054906101000a900473ffffffffffffffffffffffffffffffffffffffff169050816000806101000a81548173ffffffffffffffffffffffffffffffffffffffff021916908373ffffffffffffffffffffffffffffffffffffffff1602179055508173ffffffffffffffffffffffffffffffffffffffff168173ffffffffffffffffffffffffffffffffffffffff167f8be0079c531659141344cd1fd0a4f28419497f9722a3daafe3b4186f6b6457e060405160405180910390a35050565b610fa7846323b872dd60e01b858585604051602401610f45939291906122f3565b604051602081830303815290604052907bffffffffffffffffffffffffffffffffffffffffffffffffffffffff19166020820180517bffffffffffffffffffffffffffffffffffffffffffffffffffffffff8381831617835250505050611051565b50505050565b6110458282604051602401610fc392919061236e565b6040516020818303038152906040527f319af333000000000000000000000000000000000000000000000000000000007bffffffffffffffffffffffffffffffffffffffffffffffffffffffff19166020820180517bffffffffffffffffffffffffffffffffffffffffffffffffffffffff8381831617835250505050611119565b5050565b600033905090565b60006110b3826040518060400160405280602081526020017f5361666545524332303a206c6f772d6c6576656c2063616c6c206661696c65648152508573ffffffffffffffffffffffffffffffffffffffff166111429092919063ffffffff16565b90506000815114806110d55750808060200190518101906110d491906123ca565b5b611114576040517f08c379a000000000000000000000000000000000000000000000000000000000815260040161110b90612469565b60405180910390fd5b505050565b60008151905060006a636f6e736f6c652e6c6f679050602083016000808483855afa5050505050565b6060611151848460008561115a565b90509392505050565b60608247101561119f576040517f08c379a0000000000000000000000000000000000000000000000000000000008152600401611196906124fb565b60405180910390fd5b6000808673ffffffffffffffffffffffffffffffffffffffff1685876040516111c89190611f46565b60006040518083038185875af1925050503d8060008114611205576040519150601f19603f3d011682016040523d82523d6000602084013e61120a565b606091505b509150915061121b87838387611227565b92505050949350505050565b60608315611289576000835103611281576112418561129c565b611280576040517f08c379a000000000000000000000000000000000000000000000000000000000815260040161127790612567565b60405180910390fd5b5b829050611294565b61129383836112bf565b5b949350505050565b6000808273ffffffffffffffffffffffffffffffffffffffff163b119050919050565b6000825111156112d25781518083602001fd5b806040517f08c379a00000000000000000000000000000000000000000000000000000000081526004016113069190612587565b60405180910390fd5b6000604051905090565b600080fd5b600080fd5b60007fffffffff0000000000000000000000000000000000000000000000000000000082169050919050565b61135881611323565b811461136357600080fd5b50565b6000813590506113758161134f565b92915050565b60006020828403121561139157611390611319565b5b600061139f84828501611366565b91505092915050565b60008115159050919050565b6113bd816113a8565b82525050565b60006020820190506113d860008301846113b4565b92915050565b600073ffffffffffffffffffffffffffffffffffffffff82169050919050565b6000819050919050565b600061142361141e611419846113de565b6113fe565b6113de565b9050919050565b600061143582611408565b9050919050565b60006114478261142a565b9050919050565b6114578161143c565b82525050565b6000602082019050611472600083018461144e565b92915050565b6000611483826113de565b9050919050565b61149381611478565b82525050565b60006020820190506114ae600083018461148a565b92915050565b6114bd81611478565b81146114c857600080fd5b50565b6000813590506114da816114b4565b92915050565b600080fd5b6000601f19601f8301169050919050565b7f4e487b7100000000000000000000000000000000000000000000000000000000600052604160045260246000fd5b61152e826114e5565b810181811067ffffffffffffffff8211171561154d5761154c6114f6565b5b80604052505050565b600061156061130f565b905061156c8282611525565b919050565b600067ffffffffffffffff82111561158c5761158b6114f6565b5b602082029050602081019050919050565b600080fd5b6000819050919050565b6115b5816115a2565b81146115c057600080fd5b50565b6000813590506115d2816115ac565b92915050565b60006115eb6115e684611571565b611556565b9050808382526020820190506020840283018581111561160e5761160d61159d565b5b835b81811015611637578061162388826115c3565b845260208401935050602081019050611610565b5050509392505050565b600082601f830112611656576116556114e0565b5b81356116668482602086016115d8565b91505092915050565b600080fd5b600067ffffffffffffffff82111561168f5761168e6114f6565b5b611698826114e5565b9050602081019050919050565b82818337600083830152505050565b60006116c76116c284611674565b611556565b9050828152602081018484840111156116e3576116e261166f565b5b6116ee8482856116a5565b509392505050565b600082601f83011261170b5761170a6114e0565b5b813561171b8482602086016116b4565b91505092915050565b600080600080600060a086880312156117405761173f611319565b5b600061174e888289016114cb565b955050602061175f888289016114cb565b945050604086013567ffffffffffffffff8111156117805761177f61131e565b5b61178c88828901611641565b935050606086013567ffffffffffffffff8111156117ad576117ac61131e565b5b6117b988828901611641565b925050608086013567ffffffffffffffff8111156117da576117d961131e565b5b6117e6888289016116f6565b9150509295509295909350565b6117fc81611323565b82525050565b600060208201905061181760008301846117f3565b92915050565b600060ff82169050919050565b6118338161181d565b811461183e57600080fd5b50565b6000813590506118508161182a565b92915050565b60008060006060848603121561186f5761186e611319565b5b600061187d868287016115c3565b935050602061188e868287016115c3565b925050604061189f86828701611841565b9150509250925092565b6000602082840312156118bf576118be611319565b5b60006118cd848285016115c3565b91505092915050565b6118df816115a2565b82525050565b60006020820190506118fa60008301846118d6565b92915050565b600061190b8261142a565b9050919050565b61191b81611900565b82525050565b60006020820190506119366000830184611912565b92915050565b600080600080600060a0868803121561195857611957611319565b5b6000611966888289016114cb565b9550506020611977888289016114cb565b9450506040611988888289016115c3565b9350506060611999888289016115c3565b925050608086013567ffffffffffffffff8111156119ba576119b961131e565b5b6119c6888289016116f6565b9150509295509295909350565b6000602082840312156119e9576119e8611319565b5b60006119f7848285016114cb565b91505092915050565b60008060408385031215611a1757611a16611319565b5b6000611a25858286016115c3565b9250506020611a36858286016115c3565b9150509250929050565b600082825260208201905092915050565b7f7072696365206e6f742073657420796574000000000000000000000000000000600082015250565b6000611a87601183611a40565b9150611a9282611a51565b602082019050919050565b60006020820190508181036000830152611ab681611a7a565b9050919050565b7f4e487b7100000000000000000000000000000000000000000000000000000000600052601160045260246000fd5b6000611af7826115a2565b9150611b02836115a2565b9250817fffffffffffffffffffffffffffffffffffffffffffffffffffffffffffffffff0483118215151615611b3b57611b3a611abd565b5b828202905092915050565b7f616d6f756e74206e6f7420656e6f756768000000000000000000000000000000600082015250565b6000611b7c601183611a40565b9150611b8782611b46565b602082019050919050565b60006020820190508181036000830152611bab81611b6f565b9050919050565b6000604082019050611bc7600083018561148a565b611bd460208301846118d6565b9392505050565b600081519050611bea816115ac565b92915050565b600060208284031215611c0657611c05611319565b5b6000611c1484828501611bdb565b91505092915050565b7f696e73756666696369656e7420746f6b656e0000000000000000000000000000600082015250565b6000611c53601283611a40565b9150611c5e82611c1d565b602082019050919050565b60006020820190508181036000830152611c8281611c46565b9050919050565b6000604082019050611c9e600083018561148a565b611cab602083018461148a565b9392505050565b7f696e73756666696369656e7420746f6b656e20617070726f76616c0000000000600082015250565b6000611ce8601b83611a40565b9150611cf382611cb2565b602082019050919050565b60006020820190508181036000830152611d1781611cdb565b9050919050565b6000611d39611d34611d2f8461181d565b6113fe565b6115a2565b9050919050565b611d4981611d1e565b82525050565b600082825260208201905092915050565b50565b6000611d70600083611d4f565b9150611d7b82611d60565b600082019050919050565b600060a082019050611d9b600083018761148a565b611da8602083018661148a565b611db560408301856118d6565b611dc26060830184611d40565b8181036080830152611dd381611d63565b905095945050505050565b611de78161181d565b82525050565b6000608082019050611e0260008301876118d6565b611e0f60208301866118d6565b611e1c6040830185611dde565b611e2960608301846118d6565b95945050505050565b7f7072696365206e6f7420656e6f75676800000000000000000000000000000000600082015250565b6000611e68601083611a40565b9150611e7382611e32565b602082019050919050565b60006020820190508181036000830152611e9781611e5b565b9050919050565b6000606082019050611eb3600083018661148a565b611ec060208301856118d6565b611ecd60408301846118d6565b949350505050565b600081519050919050565b600081905092915050565b60005b83811015611f09578082015181840152602081019050611eee565b60008484015250505050565b6000611f2082611ed5565b611f2a8185611ee0565b9350611f3a818560208601611eeb565b80840191505092915050565b6000611f528284611f15565b915081905092915050565b7f6d696e74206661696c65642e0000000000000000000000000000000000000000600082015250565b6000611f93600c83611a40565b9150611f9e82611f5d565b602082019050919050565b60006020820190508181036000830152611fc281611f86565b9050919050565b7f696e636f72726563742073656e64657200000000000000000000000000000000600082015250565b6000611fff601083611a40565b915061200a82611fc9565b602082019050919050565b6000602082019050818103600083015261202e81611ff2565b9050919050565b7f7175616e74697479206973207a65726f00000000000000000000000000000000600082015250565b600061206b601083611a40565b915061207682612035565b602082019050919050565b6000602082019050818103600083015261209a8161205e565b9050919050565b60006080820190506120b6600083018761148a565b6120c3602083018661148a565b6120d060408301856118d6565b6120dd60608301846118d6565b95945050505050565b7f4f776e61626c653a206e6577206f776e657220697320746865207a65726f206160008201527f6464726573730000000000000000000000000000000000000000000000000000602082015250565b6000612142602683611a40565b915061214d826120e6565b604082019050919050565b6000602082019050818103600083015261217181612135565b9050919050565b7f746f6b656e4964206973207a65726f0000000000000000000000000000000000600082015250565b60006121ae600f83611a40565b91506121b982612178565b602082019050919050565b600060208201905081810360008301526121dd816121a1565b9050919050565b7f7072696365206973207a65726f00000000000000000000000000000000000000600082015250565b600061221a600d83611a40565b9150612225826121e4565b602082019050919050565b600060208201905081810360008301526122498161220d565b9050919050565b600060608201905061226560008301866118d6565b61227260208301856118d6565b61227f60408301846118d6565b949350505050565b7f4f776e61626c653a2063616c6c6572206973206e6f7420746865206f776e6572600082015250565b60006122bd602083611a40565b91506122c882612287565b602082019050919050565b600060208201905081810360008301526122ec816122b0565b9050919050565b6000606082019050612308600083018661148a565b612315602083018561148a565b61232260408301846118d6565b949350505050565b600081519050919050565b60006123408261232a565b61234a8185611a40565b935061235a818560208601611eeb565b612363816114e5565b840191505092915050565b600060408201905081810360008301526123888185612335565b9050612397602083018461148a565b9392505050565b6123a7816113a8565b81146123b257600080fd5b50565b6000815190506123c48161239e565b92915050565b6000602082840312156123e0576123df611319565b5b60006123ee848285016123b5565b91505092915050565b7f5361666545524332303a204552433230206f7065726174696f6e20646964206e60008201527f6f74207375636365656400000000000000000000000000000000000000000000602082015250565b6000612453602a83611a40565b915061245e826123f7565b604082019050919050565b6000602082019050818103600083015261248281612446565b9050919050565b7f416464726573733a20696e73756666696369656e742062616c616e636520666f60008201527f722063616c6c0000000000000000000000000000000000000000000000000000602082015250565b60006124e5602683611a40565b91506124f082612489565b604082019050919050565b60006020820190508181036000830152612514816124d8565b9050919050565b7f416464726573733a2063616c6c20746f206e6f6e2d636f6e7472616374000000600082015250565b6000612551601d83611a40565b915061255c8261251b565b602082019050919050565b6000602082019050818103600083015261258081612544565b9050919050565b600060208201905081810360008301526125a18184612335565b90509291505056fea2646970667358221220adc9a8734a96fbc85177ebd0727f6b56f076023a3f2326d57b9f39b004c98a0d64736f6c63430008100033",
			"opcodes": "PUSH1 0x80 PUSH1 0x40 MSTORE CALLVALUE DUP1 ISZERO PUSH3 0x11 JUMPI PUSH1 0x0 DUP1 REVERT JUMPDEST POP PUSH1 0x40 MLOAD PUSH3 0x284D CODESIZE SUB DUP1 PUSH3 0x284D DUP4 CODECOPY DUP2 DUP2 ADD PUSH1 0x40 MSTORE DUP2 ADD SWAP1 PUSH3 0x37 SWAP2 SWAP1 PUSH3 0x217 JUMP JUMPDEST PUSH3 0x57 PUSH3 0x4B PUSH3 0xE1 PUSH1 0x20 SHL PUSH1 0x20 SHR JUMP JUMPDEST PUSH3 0xE9 PUSH1 0x20 SHL PUSH1 0x20 SHR JUMP JUMPDEST DUP2 PUSH1 0x2 PUSH1 0x0 PUSH2 0x100 EXP DUP2 SLOAD DUP2 PUSH20 0xFFFFFFFFFFFFFFFFFFFFFFFFFFFFFFFFFFFFFFFF MUL NOT AND SWAP1 DUP4 PUSH20 0xFFFFFFFFFFFFFFFFFFFFFFFFFFFFFFFFFFFFFFFF AND MUL OR SWAP1 SSTORE POP DUP1 PUSH1 0x1 PUSH1 0x0 PUSH2 0x100 EXP DUP2 SLOAD DUP2 PUSH20 0xFFFFFFFFFFFFFFFFFFFFFFFFFFFFFFFFFFFFFFFF MUL NOT AND SWAP1 DUP4 PUSH20 0xFFFFFFFFFFFFFFFFFFFFFFFFFFFFFFFFFFFFFFFF AND MUL OR SWAP1 SSTORE POP POP POP PUSH3 0x25E JUMP JUMPDEST PUSH1 0x0 CALLER SWAP1 POP SWAP1 JUMP JUMPDEST PUSH1 0x0 DUP1 PUSH1 0x0 SWAP1 SLOAD SWAP1 PUSH2 0x100 EXP SWAP1 DIV PUSH20 0xFFFFFFFFFFFFFFFFFFFFFFFFFFFFFFFFFFFFFFFF AND SWAP1 POP DUP2 PUSH1 0x0 DUP1 PUSH2 0x100 EXP DUP2 SLOAD DUP2 PUSH20 0xFFFFFFFFFFFFFFFFFFFFFFFFFFFFFFFFFFFFFFFF MUL NOT AND SWAP1 DUP4 PUSH20 0xFFFFFFFFFFFFFFFFFFFFFFFFFFFFFFFFFFFFFFFF AND MUL OR SWAP1 SSTORE POP DUP2 PUSH20 0xFFFFFFFFFFFFFFFFFFFFFFFFFFFFFFFFFFFFFFFF AND DUP2 PUSH20 0xFFFFFFFFFFFFFFFFFFFFFFFFFFFFFFFFFFFFFFFF AND PUSH32 0x8BE0079C531659141344CD1FD0A4F28419497F9722A3DAAFE3B4186F6B6457E0 PUSH1 0x40 MLOAD PUSH1 0x40 MLOAD DUP1 SWAP2 SUB SWAP1 LOG3 POP POP JUMP JUMPDEST PUSH1 0x0 DUP1 REVERT JUMPDEST PUSH1 0x0 PUSH20 0xFFFFFFFFFFFFFFFFFFFFFFFFFFFFFFFFFFFFFFFF DUP3 AND SWAP1 POP SWAP2 SWAP1 POP JUMP JUMPDEST PUSH1 0x0 PUSH3 0x1DF DUP3 PUSH3 0x1B2 JUMP JUMPDEST SWAP1 POP SWAP2 SWAP1 POP JUMP JUMPDEST PUSH3 0x1F1 DUP2 PUSH3 0x1D2 JUMP JUMPDEST DUP2 EQ PUSH3 0x1FD JUMPI PUSH1 0x0 DUP1 REVERT JUMPDEST POP JUMP JUMPDEST PUSH1 0x0 DUP2 MLOAD SWAP1 POP PUSH3 0x211 DUP2 PUSH3 0x1E6 JUMP JUMPDEST SWAP3 SWAP2 POP POP JUMP JUMPDEST PUSH1 0x0 DUP1 PUSH1 0x40 DUP4 DUP6 SUB SLT ISZERO PUSH3 0x231 JUMPI PUSH3 0x230 PUSH3 0x1AD JUMP JUMPDEST JUMPDEST PUSH1 0x0 PUSH3 0x241 DUP6 DUP3 DUP7 ADD PUSH3 0x200 JUMP JUMPDEST SWAP3 POP POP PUSH1 0x20 PUSH3 0x254 DUP6 DUP3 DUP7 ADD PUSH3 0x200 JUMP JUMPDEST SWAP2 POP POP SWAP3 POP SWAP3 SWAP1 POP JUMP JUMPDEST PUSH2 0x25DF DUP1 PUSH3 0x26E PUSH1 0x0 CODECOPY PUSH1 0x0 RETURN INVALID PUSH1 0x80 PUSH1 0x40 MSTORE PUSH1 0x4 CALLDATASIZE LT PUSH2 0xA7 JUMPI PUSH1 0x0 CALLDATALOAD PUSH1 0xE0 SHR DUP1 PUSH4 0xD4DDCE8A GT PUSH2 0x64 JUMPI DUP1 PUSH4 0xD4DDCE8A EQ PUSH2 0x1BC JUMPI DUP1 PUSH4 0xEA75AA8F EQ PUSH2 0x1F9 JUMPI DUP1 PUSH4 0xEDCA914C EQ PUSH2 0x224 JUMPI DUP1 PUSH4 0xF23A6E61 EQ PUSH2 0x22E JUMPI DUP1 PUSH4 0xF2FDE38B EQ PUSH2 0x26B JUMPI DUP1 PUSH4 0xF7D97577 EQ PUSH2 0x294 JUMPI PUSH2 0xA7 JUMP JUMPDEST DUP1 PUSH4 0x1FFC9A7 EQ PUSH2 0xAC JUMPI DUP1 PUSH4 0x2C1449E1 EQ PUSH2 0xE9 JUMPI DUP1 PUSH4 0x715018A6 EQ PUSH2 0x114 JUMPI DUP1 PUSH4 0x8DA5CB5B EQ PUSH2 0x12B JUMPI DUP1 PUSH4 0xBC197C81 EQ PUSH2 0x156 JUMPI DUP1 PUSH4 0xD407CEE7 EQ PUSH2 0x193 JUMPI JUMPDEST PUSH1 0x0 DUP1 REVERT JUMPDEST CALLVALUE DUP1 ISZERO PUSH2 0xB8 JUMPI PUSH1 0x0 DUP1 REVERT JUMPDEST POP PUSH2 0xD3 PUSH1 0x4 DUP1 CALLDATASIZE SUB DUP2 ADD SWAP1 PUSH2 0xCE SWAP2 SWAP1 PUSH2 0x137B JUMP JUMPDEST PUSH2 0x2BD JUMP JUMPDEST PUSH1 0x40 MLOAD PUSH2 0xE0 SWAP2 SWAP1 PUSH2 0x13C3 JUMP JUMPDEST PUSH1 0x40 MLOAD DUP1 SWAP2 SUB SWAP1 RETURN JUMPDEST CALLVALUE DUP1 ISZERO PUSH2 0xF5 JUMPI PUSH1 0x0 DUP1 REVERT JUMPDEST POP PUSH2 0xFE PUSH2 0x337 JUMP JUMPDEST PUSH1 0x40 MLOAD PUSH2 0x10B SWAP2 SWAP1 PUSH2 0x145D JUMP JUMPDEST PUSH1 0x40 MLOAD DUP1 SWAP2 SUB SWAP1 RETURN JUMPDEST CALLVALUE DUP1 ISZERO PUSH2 0x120 JUMPI PUSH1 0x0 DUP1 REVERT JUMPDEST POP PUSH2 0x129 PUSH2 0x35D JUMP JUMPDEST STOP JUMPDEST CALLVALUE DUP1 ISZERO PUSH2 0x137 JUMPI PUSH1 0x0 DUP1 REVERT JUMPDEST POP PUSH2 0x140 PUSH2 0x371 JUMP JUMPDEST PUSH1 0x40 MLOAD PUSH2 0x14D SWAP2 SWAP1 PUSH2 0x1499 JUMP JUMPDEST PUSH1 0x40 MLOAD DUP1 SWAP2 SUB SWAP1 RETURN JUMPDEST CALLVALUE DUP1 ISZERO PUSH2 0x162 JUMPI PUSH1 0x0 DUP1 REVERT JUMPDEST POP PUSH2 0x17D PUSH1 0x4 DUP1 CALLDATASIZE SUB DUP2 ADD SWAP1 PUSH2 0x178 SWAP2 SWAP1 PUSH2 0x1724 JUMP JUMPDEST PUSH2 0x39A JUMP JUMPDEST PUSH1 0x40 MLOAD PUSH2 0x18A SWAP2 SWAP1 PUSH2 0x1802 JUMP JUMPDEST PUSH1 0x40 MLOAD DUP1 SWAP2 SUB SWAP1 RETURN JUMPDEST CALLVALUE DUP1 ISZERO PUSH2 0x19F JUMPI PUSH1 0x0 DUP1 REVERT JUMPDEST POP PUSH2 0x1BA PUSH1 0x4 DUP1 CALLDATASIZE SUB DUP2 ADD SWAP1 PUSH2 0x1B5 SWAP2 SWAP1 PUSH2 0x1856 JUMP JUMPDEST PUSH2 0x3AF JUMP JUMPDEST STOP JUMPDEST CALLVALUE DUP1 ISZERO PUSH2 0x1C8 JUMPI PUSH1 0x0 DUP1 REVERT JUMPDEST POP PUSH2 0x1E3 PUSH1 0x4 DUP1 CALLDATASIZE SUB DUP2 ADD SWAP1 PUSH2 0x1DE SWAP2 SWAP1 PUSH2 0x18A9 JUMP JUMPDEST PUSH2 0x81B JUMP JUMPDEST PUSH1 0x40 MLOAD PUSH2 0x1F0 SWAP2 SWAP1 PUSH2 0x18E5 JUMP JUMPDEST PUSH1 0x40 MLOAD DUP1 SWAP2 SUB SWAP1 RETURN JUMPDEST CALLVALUE DUP1 ISZERO PUSH2 0x205 JUMPI PUSH1 0x0 DUP1 REVERT JUMPDEST POP PUSH2 0x20E PUSH2 0x833 JUMP JUMPDEST PUSH1 0x40 MLOAD PUSH2 0x21B SWAP2 SWAP1 PUSH2 0x1921 JUMP JUMPDEST PUSH1 0x40 MLOAD DUP1 SWAP2 SUB SWAP1 RETURN JUMPDEST PUSH2 0x22C PUSH2 0x859 JUMP JUMPDEST STOP JUMPDEST CALLVALUE DUP1 ISZERO PUSH2 0x23A JUMPI PUSH1 0x0 DUP1 REVERT JUMPDEST POP PUSH2 0x255 PUSH1 0x4 DUP1 CALLDATASIZE SUB DUP2 ADD SWAP1 PUSH2 0x250 SWAP2 SWAP1 PUSH2 0x193C JUMP JUMPDEST PUSH2 0xA66 JUMP JUMPDEST PUSH1 0x40 MLOAD PUSH2 0x262 SWAP2 SWAP1 PUSH2 0x1802 JUMP JUMPDEST PUSH1 0x40 MLOAD DUP1 SWAP2 SUB SWAP1 RETURN JUMPDEST CALLVALUE DUP1 ISZERO PUSH2 0x277 JUMPI PUSH1 0x0 DUP1 REVERT JUMPDEST POP PUSH2 0x292 PUSH1 0x4 DUP1 CALLDATASIZE SUB DUP2 ADD SWAP1 PUSH2 0x28D SWAP2 SWAP1 PUSH2 0x19D3 JUMP JUMPDEST PUSH2 0xB8B JUMP JUMPDEST STOP JUMPDEST CALLVALUE DUP1 ISZERO PUSH2 0x2A0 JUMPI PUSH1 0x0 DUP1 REVERT JUMPDEST POP PUSH2 0x2BB PUSH1 0x4 DUP1 CALLDATASIZE SUB DUP2 ADD SWAP1 PUSH2 0x2B6 SWAP2 SWAP1 PUSH2 0x1A00 JUMP JUMPDEST PUSH2 0xC0E JUMP JUMPDEST STOP JUMPDEST PUSH1 0x0 PUSH32 0x4E2312E000000000000000000000000000000000000000000000000000000000 PUSH28 0xFFFFFFFFFFFFFFFFFFFFFFFFFFFFFFFFFFFFFFFFFFFFFFFFFFFFFFFF NOT AND DUP3 PUSH28 0xFFFFFFFFFFFFFFFFFFFFFFFFFFFFFFFFFFFFFFFFFFFFFFFFFFFFFFFF NOT AND EQ DUP1 PUSH2 0x330 JUMPI POP PUSH2 0x32F DUP3 PUSH2 0xD78 JUMP JUMPDEST JUMPDEST SWAP1 POP SWAP2 SWAP1 POP JUMP JUMPDEST PUSH1 0x1 PUSH1 0x0 SWAP1 SLOAD SWAP1 PUSH2 0x100 EXP SWAP1 DIV PUSH20 0xFFFFFFFFFFFFFFFFFFFFFFFFFFFFFFFFFFFFFFFF AND DUP2 JUMP JUMPDEST PUSH2 0x365 PUSH2 0xDE2 JUMP JUMPDEST PUSH2 0x36F PUSH1 0x0 PUSH2 0xE60 JUMP JUMPDEST JUMP JUMPDEST PUSH1 0x0 DUP1 PUSH1 0x0 SWAP1 SLOAD SWAP1 PUSH2 0x100 EXP SWAP1 DIV PUSH20 0xFFFFFFFFFFFFFFFFFFFFFFFFFFFFFFFFFFFFFFFF AND SWAP1 POP SWAP1 JUMP JUMPDEST PUSH1 0x0 PUSH4 0xBC197C81 PUSH1 0xE0 SHL SWAP1 POP SWAP6 SWAP5 POP POP POP POP POP JUMP JUMPDEST PUSH1 0x0 CALLER SWAP1 POP PUSH1 0x0 PUSH1 0x3 PUSH1 0x0 DUP7 DUP2 MSTORE PUSH1 0x20 ADD SWAP1 DUP2 MSTORE PUSH1 0x20 ADD PUSH1 0x0 KECCAK256 SLOAD SUB PUSH2 0x40A JUMPI PUSH1 0x40 MLOAD PUSH32 0x8C379A000000000000000000000000000000000000000000000000000000000 DUP2 MSTORE PUSH1 0x4 ADD PUSH2 0x401 SWAP1 PUSH2 0x1A9D JUMP JUMPDEST PUSH1 0x40 MLOAD DUP1 SWAP2 SUB SWAP1 REVERT JUMPDEST DUP2 PUSH1 0xFF AND PUSH1 0x3 PUSH1 0x0 DUP7 DUP2 MSTORE PUSH1 0x20 ADD SWAP1 DUP2 MSTORE PUSH1 0x20 ADD PUSH1 0x0 KECCAK256 SLOAD PUSH2 0x42C SWAP2 SWAP1 PUSH2 0x1AEC JUMP JUMPDEST DUP4 LT ISZERO PUSH2 0x46E JUMPI PUSH1 0x40 MLOAD PUSH32 0x8C379A000000000000000000000000000000000000000000000000000000000 DUP2 MSTORE PUSH1 0x4 ADD PUSH2 0x465 SWAP1 PUSH2 0x1B92 JUMP JUMPDEST PUSH1 0x40 MLOAD DUP1 SWAP2 SUB SWAP1 REVERT JUMPDEST DUP2 PUSH1 0xFF AND PUSH1 0x2 PUSH1 0x0 SWAP1 SLOAD SWAP1 PUSH2 0x100 EXP SWAP1 DIV PUSH20 0xFFFFFFFFFFFFFFFFFFFFFFFFFFFFFFFFFFFFFFFF AND PUSH20 0xFFFFFFFFFFFFFFFFFFFFFFFFFFFFFFFFFFFFFFFF AND PUSH3 0xFDD58E ADDRESS DUP8 PUSH1 0x40 MLOAD DUP4 PUSH4 0xFFFFFFFF AND PUSH1 0xE0 SHL DUP2 MSTORE PUSH1 0x4 ADD PUSH2 0x4CE SWAP3 SWAP2 SWAP1 PUSH2 0x1BB2 JUMP JUMPDEST PUSH1 0x20 PUSH1 0x40 MLOAD DUP1 DUP4 SUB DUP2 DUP7 GAS STATICCALL ISZERO DUP1 ISZERO PUSH2 0x4EB JUMPI RETURNDATASIZE PUSH1 0x0 DUP1 RETURNDATACOPY RETURNDATASIZE PUSH1 0x0 REVERT JUMPDEST POP POP POP POP PUSH1 0x40 MLOAD RETURNDATASIZE PUSH1 0x1F NOT PUSH1 0x1F DUP3 ADD AND DUP3 ADD DUP1 PUSH1 0x40 MSTORE POP DUP2 ADD SWAP1 PUSH2 0x50F SWAP2 SWAP1 PUSH2 0x1BF0 JUMP JUMPDEST LT ISZERO PUSH2 0x51A JUMPI PUSH1 0x0 DUP1 REVERT JUMPDEST DUP3 PUSH1 0x1 PUSH1 0x0 SWAP1 SLOAD SWAP1 PUSH2 0x100 EXP SWAP1 DIV PUSH20 0xFFFFFFFFFFFFFFFFFFFFFFFFFFFFFFFFFFFFFFFF AND PUSH20 0xFFFFFFFFFFFFFFFFFFFFFFFFFFFFFFFFFFFFFFFF AND PUSH4 0x70A08231 DUP4 PUSH1 0x40 MLOAD DUP3 PUSH4 0xFFFFFFFF AND PUSH1 0xE0 SHL DUP2 MSTORE PUSH1 0x4 ADD PUSH2 0x576 SWAP2 SWAP1 PUSH2 0x1499 JUMP JUMPDEST PUSH1 0x20 PUSH1 0x40 MLOAD DUP1 DUP4 SUB DUP2 DUP7 GAS STATICCALL ISZERO DUP1 ISZERO PUSH2 0x593 JUMPI RETURNDATASIZE PUSH1 0x0 DUP1 RETURNDATACOPY RETURNDATASIZE PUSH1 0x0 REVERT JUMPDEST POP POP POP POP PUSH1 0x40 MLOAD RETURNDATASIZE PUSH1 0x1F NOT PUSH1 0x1F DUP3 ADD AND DUP3 ADD DUP1 PUSH1 0x40 MSTORE POP DUP2 ADD SWAP1 PUSH2 0x5B7 SWAP2 SWAP1 PUSH2 0x1BF0 JUMP JUMPDEST LT ISZERO PUSH2 0x5F8 JUMPI PUSH1 0x40 MLOAD PUSH32 0x8C379A000000000000000000000000000000000000000000000000000000000 DUP2 MSTORE PUSH1 0x4 ADD PUSH2 0x5EF SWAP1 PUSH2 0x1C69 JUMP JUMPDEST PUSH1 0x40 MLOAD DUP1 SWAP2 SUB SWAP1 REVERT JUMPDEST DUP3 PUSH1 0x1 PUSH1 0x0 SWAP1 SLOAD SWAP1 PUSH2 0x100 EXP SWAP1 DIV PUSH20 0xFFFFFFFFFFFFFFFFFFFFFFFFFFFFFFFFFFFFFFFF AND PUSH20 0xFFFFFFFFFFFFFFFFFFFFFFFFFFFFFFFFFFFFFFFF AND PUSH4 0xDD62ED3E DUP4 ADDRESS PUSH1 0x40 MLOAD DUP4 PUSH4 0xFFFFFFFF AND PUSH1 0xE0 SHL DUP2 MSTORE PUSH1 0x4 ADD PUSH2 0x656 SWAP3 SWAP2 SWAP1 PUSH2 0x1C89 JUMP JUMPDEST PUSH1 0x20 PUSH1 0x40 MLOAD DUP1 DUP4 SUB DUP2 DUP7 GAS STATICCALL ISZERO DUP1 ISZERO PUSH2 0x673 JUMPI RETURNDATASIZE PUSH1 0x0 DUP1 RETURNDATACOPY RETURNDATASIZE PUSH1 0x0 REVERT JUMPDEST POP POP POP POP PUSH1 0x40 MLOAD RETURNDATASIZE PUSH1 0x1F NOT PUSH1 0x1F DUP3 ADD AND DUP3 ADD DUP1 PUSH1 0x40 MSTORE POP DUP2 ADD SWAP1 PUSH2 0x697 SWAP2 SWAP1 PUSH2 0x1BF0 JUMP JUMPDEST LT ISZERO PUSH2 0x6D8 JUMPI PUSH1 0x40 MLOAD PUSH32 0x8C379A000000000000000000000000000000000000000000000000000000000 DUP2 MSTORE PUSH1 0x4 ADD PUSH2 0x6CF SWAP1 PUSH2 0x1CFE JUMP JUMPDEST PUSH1 0x40 MLOAD DUP1 SWAP2 SUB SWAP1 REVERT JUMPDEST PUSH2 0x72E DUP2 PUSH2 0x6E4 PUSH2 0x371 JUMP JUMPDEST DUP6 PUSH1 0x1 PUSH1 0x0 SWAP1 SLOAD SWAP1 PUSH2 0x100 EXP SWAP1 DIV PUSH20 0xFFFFFFFFFFFFFFFFFFFFFFFFFFFFFFFFFFFFFFFF AND PUSH20 0xFFFFFFFFFFFFFFFFFFFFFFFFFFFFFFFFFFFFFFFF AND PUSH2 0xF24 SWAP1 SWAP4 SWAP3 SWAP2 SWAP1 PUSH4 0xFFFFFFFF AND JUMP JUMPDEST PUSH1 0x2 PUSH1 0x0 SWAP1 SLOAD SWAP1 PUSH2 0x100 EXP SWAP1 DIV PUSH20 0xFFFFFFFFFFFFFFFFFFFFFFFFFFFFFFFFFFFFFFFF AND PUSH20 0xFFFFFFFFFFFFFFFFFFFFFFFFFFFFFFFFFFFFFFFF AND PUSH4 0xF242432A ADDRESS DUP4 DUP8 DUP7 PUSH1 0x40 MLOAD DUP6 PUSH4 0xFFFFFFFF AND PUSH1 0xE0 SHL DUP2 MSTORE PUSH1 0x4 ADD PUSH2 0x78F SWAP5 SWAP4 SWAP3 SWAP2 SWAP1 PUSH2 0x1D86 JUMP JUMPDEST PUSH1 0x0 PUSH1 0x40 MLOAD DUP1 DUP4 SUB DUP2 PUSH1 0x0 DUP8 DUP1 EXTCODESIZE ISZERO DUP1 ISZERO PUSH2 0x7A9 JUMPI PUSH1 0x0 DUP1 REVERT JUMPDEST POP GAS CALL ISZERO DUP1 ISZERO PUSH2 0x7BD JUMPI RETURNDATASIZE PUSH1 0x0 DUP1 RETURNDATACOPY RETURNDATASIZE PUSH1 0x0 REVERT JUMPDEST POP POP POP POP DUP1 PUSH20 0xFFFFFFFFFFFFFFFFFFFFFFFFFFFFFFFFFFFFFFFF AND PUSH32 0xB911D7E2EC7C85DD17DC5DBF9C086E0ADE9A12A268015519A2A5F93CE5754FEA DUP6 DUP6 DUP6 TIMESTAMP PUSH1 0x40 MLOAD PUSH2 0x80D SWAP5 SWAP4 SWAP3 SWAP2 SWAP1 PUSH2 0x1DED JUMP JUMPDEST PUSH1 0x40 MLOAD DUP1 SWAP2 SUB SWAP1 LOG2 POP POP POP POP JUMP JUMPDEST PUSH1 0x3 PUSH1 0x20 MSTORE DUP1 PUSH1 0x0 MSTORE PUSH1 0x40 PUSH1 0x0 KECCAK256 PUSH1 0x0 SWAP2 POP SWAP1 POP SLOAD DUP2 JUMP JUMPDEST PUSH1 0x2 PUSH1 0x0 SWAP1 SLOAD SWAP1 PUSH2 0x100 EXP SWAP1 DIV PUSH20 0xFFFFFFFFFFFFFFFFFFFFFFFFFFFFFFFFFFFFFFFF AND DUP2 JUMP JUMPDEST PUSH7 0x2386F26FC10000 CALLVALUE LT ISZERO PUSH2 0x8A3 JUMPI PUSH1 0x40 MLOAD PUSH32 0x8C379A000000000000000000000000000000000000000000000000000000000 DUP2 MSTORE PUSH1 0x4 ADD PUSH2 0x89A SWAP1 PUSH2 0x1E7E JUMP JUMPDEST PUSH1 0x40 MLOAD DUP1 SWAP2 SUB SWAP1 REVERT JUMPDEST PUSH1 0x0 PUSH1 0x2 PUSH1 0x0 SWAP1 SLOAD SWAP1 PUSH2 0x100 EXP SWAP1 DIV PUSH20 0xFFFFFFFFFFFFFFFFFFFFFFFFFFFFFFFFFFFFFFFF AND PUSH20 0xFFFFFFFFFFFFFFFFFFFFFFFFFFFFFFFFFFFFFFFF AND CALLER PUSH17 0x100000000000000000000000000000000 PUSH1 0x1 PUSH1 0x40 MLOAD PUSH1 0x24 ADD PUSH2 0x905 SWAP4 SWAP3 SWAP2 SWAP1 PUSH2 0x1E9E JUMP JUMPDEST PUSH1 0x40 MLOAD PUSH1 0x20 DUP2 DUP4 SUB SUB DUP2 MSTORE SWAP1 PUSH1 0x40 MSTORE PUSH32 0x156E29F600000000000000000000000000000000000000000000000000000000 PUSH28 0xFFFFFFFFFFFFFFFFFFFFFFFFFFFFFFFFFFFFFFFFFFFFFFFFFFFFFFFF NOT AND PUSH1 0x20 DUP3 ADD DUP1 MLOAD PUSH28 0xFFFFFFFFFFFFFFFFFFFFFFFFFFFFFFFFFFFFFFFFFFFFFFFFFFFFFFFF DUP4 DUP2 DUP4 AND OR DUP4 MSTORE POP POP POP POP PUSH1 0x40 MLOAD PUSH2 0x98F SWAP2 SWAP1 PUSH2 0x1F46 JUMP JUMPDEST PUSH1 0x0 PUSH1 0x40 MLOAD DUP1 DUP4 SUB DUP2 PUSH1 0x0 DUP7 GAS CALL SWAP2 POP POP RETURNDATASIZE DUP1 PUSH1 0x0 DUP2 EQ PUSH2 0x9CC JUMPI PUSH1 0x40 MLOAD SWAP2 POP PUSH1 0x1F NOT PUSH1 0x3F RETURNDATASIZE ADD AND DUP3 ADD PUSH1 0x40 MSTORE RETURNDATASIZE DUP3 MSTORE RETURNDATASIZE PUSH1 0x0 PUSH1 0x20 DUP5 ADD RETURNDATACOPY PUSH2 0x9D1 JUMP JUMPDEST PUSH1 0x60 SWAP2 POP JUMPDEST POP POP SWAP1 POP DUP1 PUSH2 0xA15 JUMPI PUSH1 0x40 MLOAD PUSH32 0x8C379A000000000000000000000000000000000000000000000000000000000 DUP2 MSTORE PUSH1 0x4 ADD PUSH2 0xA0C SWAP1 PUSH2 0x1FA9 JUMP JUMPDEST PUSH1 0x40 MLOAD DUP1 SWAP2 SUB SWAP1 REVERT JUMPDEST CALLER PUSH20 0xFFFFFFFFFFFFFFFFFFFFFFFFFFFFFFFFFFFFFFFF AND PUSH32 0xB31B775FF4413DCC480F9FB7C6546BFDE26F1504EAB9F4F6E606EC8D0561F023 TIMESTAMP PUSH1 0x40 MLOAD PUSH2 0xA5B SWAP2 SWAP1 PUSH2 0x18E5 JUMP JUMPDEST PUSH1 0x40 MLOAD DUP1 SWAP2 SUB SWAP1 LOG2 POP JUMP JUMPDEST PUSH1 0x0 PUSH1 0x2 PUSH1 0x0 SWAP1 SLOAD SWAP1 PUSH2 0x100 EXP SWAP1 DIV PUSH20 0xFFFFFFFFFFFFFFFFFFFFFFFFFFFFFFFFFFFFFFFF AND PUSH20 0xFFFFFFFFFFFFFFFFFFFFFFFFFFFFFFFFFFFFFFFF AND CALLER PUSH20 0xFFFFFFFFFFFFFFFFFFFFFFFFFFFFFFFFFFFFFFFF AND EQ PUSH2 0xAF8 JUMPI PUSH1 0x40 MLOAD PUSH32 0x8C379A000000000000000000000000000000000000000000000000000000000 DUP2 MSTORE PUSH1 0x4 ADD PUSH2 0xAEF SWAP1 PUSH2 0x2015 JUMP JUMPDEST PUSH1 0x40 MLOAD DUP1 SWAP2 SUB SWAP1 REVERT JUMPDEST PUSH1 0x0 DUP4 SUB PUSH2 0xB3B JUMPI PUSH1 0x40 MLOAD PUSH32 0x8C379A000000000000000000000000000000000000000000000000000000000 DUP2 MSTORE PUSH1 0x4 ADD PUSH2 0xB32 SWAP1 PUSH2 0x2081 JUMP JUMPDEST PUSH1 0x40 MLOAD DUP1 SWAP2 SUB SWAP1 REVERT JUMPDEST PUSH32 0x1650D49BAC940346E34BAC1DDE642598B57BA618D7A0C005A91257851CAE2C24 DUP7 DUP7 DUP7 DUP7 PUSH1 0x40 MLOAD PUSH2 0xB70 SWAP5 SWAP4 SWAP3 SWAP2 SWAP1 PUSH2 0x20A1 JUMP JUMPDEST PUSH1 0x40 MLOAD DUP1 SWAP2 SUB SWAP1 LOG1 PUSH4 0xF23A6E61 PUSH1 0xE0 SHL SWAP1 POP SWAP6 SWAP5 POP POP POP POP POP JUMP JUMPDEST PUSH2 0xB93 PUSH2 0xDE2 JUMP JUMPDEST PUSH1 0x0 PUSH20 0xFFFFFFFFFFFFFFFFFFFFFFFFFFFFFFFFFFFFFFFF AND DUP2 PUSH20 0xFFFFFFFFFFFFFFFFFFFFFFFFFFFFFFFFFFFFFFFF AND SUB PUSH2 0xC02 JUMPI PUSH1 0x40 MLOAD PUSH32 0x8C379A000000000000000000000000000000000000000000000000000000000 DUP2 MSTORE PUSH1 0x4 ADD PUSH2 0xBF9 SWAP1 PUSH2 0x2158 JUMP JUMPDEST PUSH1 0x40 MLOAD DUP1 SWAP2 SUB SWAP1 REVERT JUMPDEST PUSH2 0xC0B DUP2 PUSH2 0xE60 JUMP JUMPDEST POP JUMP JUMPDEST PUSH2 0xC16 PUSH2 0xDE2 JUMP JUMPDEST PUSH1 0x0 DUP3 SUB PUSH2 0xC59 JUMPI PUSH1 0x40 MLOAD PUSH32 0x8C379A000000000000000000000000000000000000000000000000000000000 DUP2 MSTORE PUSH1 0x4 ADD PUSH2 0xC50 SWAP1 PUSH2 0x21C4 JUMP JUMPDEST PUSH1 0x40 MLOAD DUP1 SWAP2 SUB SWAP1 REVERT JUMPDEST PUSH1 0x0 DUP2 SUB PUSH2 0xC9C JUMPI PUSH1 0x40 MLOAD PUSH32 0x8C379A000000000000000000000000000000000000000000000000000000000 DUP2 MSTORE PUSH1 0x4 ADD PUSH2 0xC93 SWAP1 PUSH2 0x2230 JUMP JUMPDEST PUSH1 0x40 MLOAD DUP1 SWAP2 SUB SWAP1 REVERT JUMPDEST DUP1 PUSH1 0x3 PUSH1 0x0 DUP5 DUP2 MSTORE PUSH1 0x20 ADD SWAP1 DUP2 MSTORE PUSH1 0x20 ADD PUSH1 0x0 KECCAK256 DUP2 SWAP1 SSTORE POP PUSH32 0x18E75BB8C091A6448C12A2023F055B2714C151B941A91DF8B9938788769FFE13 DUP3 DUP3 TIMESTAMP PUSH1 0x40 MLOAD PUSH2 0xCE7 SWAP4 SWAP3 SWAP2 SWAP1 PUSH2 0x2250 JUMP JUMPDEST PUSH1 0x40 MLOAD DUP1 SWAP2 SUB SWAP1 LOG1 PUSH2 0xD2E PUSH1 0x40 MLOAD DUP1 PUSH1 0x40 ADD PUSH1 0x40 MSTORE DUP1 PUSH1 0xC DUP2 MSTORE PUSH1 0x20 ADD PUSH32 0x6164647265737320746869730000000000000000000000000000000000000000 DUP2 MSTORE POP ADDRESS PUSH2 0xFAD JUMP JUMPDEST PUSH2 0xD74 PUSH1 0x40 MLOAD DUP1 PUSH1 0x40 ADD PUSH1 0x40 MSTORE DUP1 PUSH1 0xD DUP2 MSTORE PUSH1 0x20 ADD PUSH32 0x61646472657373206F776E657200000000000000000000000000000000000000 DUP2 MSTORE POP PUSH2 0xD6F PUSH2 0x371 JUMP JUMPDEST PUSH2 0xFAD JUMP JUMPDEST POP POP JUMP JUMPDEST PUSH1 0x0 PUSH32 0x1FFC9A700000000000000000000000000000000000000000000000000000000 PUSH28 0xFFFFFFFFFFFFFFFFFFFFFFFFFFFFFFFFFFFFFFFFFFFFFFFFFFFFFFFF NOT AND DUP3 PUSH28 0xFFFFFFFFFFFFFFFFFFFFFFFFFFFFFFFFFFFFFFFFFFFFFFFFFFFFFFFF NOT AND EQ SWAP1 POP SWAP2 SWAP1 POP JUMP JUMPDEST PUSH2 0xDEA PUSH2 0x1049 JUMP JUMPDEST PUSH20 0xFFFFFFFFFFFFFFFFFFFFFFFFFFFFFFFFFFFFFFFF AND PUSH2 0xE08 PUSH2 0x371 JUMP JUMPDEST PUSH20 0xFFFFFFFFFFFFFFFFFFFFFFFFFFFFFFFFFFFFFFFF AND EQ PUSH2 0xE5E JUMPI PUSH1 0x40 MLOAD PUSH32 0x8C379A000000000000000000000000000000000000000000000000000000000 DUP2 MSTORE PUSH1 0x4 ADD PUSH2 0xE55 SWAP1 PUSH2 0x22D3 JUMP JUMPDEST PUSH1 0x40 MLOAD DUP1 SWAP2 SUB SWAP1 REVERT JUMPDEST JUMP JUMPDEST PUSH1 0x0 DUP1 PUSH1 0x0 SWAP1 SLOAD SWAP1 PUSH2 0x100 EXP SWAP1 DIV PUSH20 0xFFFFFFFFFFFFFFFFFFFFFFFFFFFFFFFFFFFFFFFF AND SWAP1 POP DUP2 PUSH1 0x0 DUP1 PUSH2 0x100 EXP DUP2 SLOAD DUP2 PUSH20 0xFFFFFFFFFFFFFFFFFFFFFFFFFFFFFFFFFFFFFFFF MUL NOT AND SWAP1 DUP4 PUSH20 0xFFFFFFFFFFFFFFFFFFFFFFFFFFFFFFFFFFFFFFFF AND MUL OR SWAP1 SSTORE POP DUP2 PUSH20 0xFFFFFFFFFFFFFFFFFFFFFFFFFFFFFFFFFFFFFFFF AND DUP2 PUSH20 0xFFFFFFFFFFFFFFFFFFFFFFFFFFFFFFFFFFFFFFFF AND PUSH32 0x8BE0079C531659141344CD1FD0A4F28419497F9722A3DAAFE3B4186F6B6457E0 PUSH1 0x40 MLOAD PUSH1 0x40 MLOAD DUP1 SWAP2 SUB SWAP1 LOG3 POP POP JUMP JUMPDEST PUSH2 0xFA7 DUP5 PUSH4 0x23B872DD PUSH1 0xE0 SHL DUP6 DUP6 DUP6 PUSH1 0x40 MLOAD PUSH1 0x24 ADD PUSH2 0xF45 SWAP4 SWAP3 SWAP2 SWAP1 PUSH2 0x22F3 JUMP JUMPDEST PUSH1 0x40 MLOAD PUSH1 0x20 DUP2 DUP4 SUB SUB DUP2 MSTORE SWAP1 PUSH1 0x40 MSTORE SWAP1 PUSH28 0xFFFFFFFFFFFFFFFFFFFFFFFFFFFFFFFFFFFFFFFFFFFFFFFFFFFFFFFF NOT AND PUSH1 0x20 DUP3 ADD DUP1 MLOAD PUSH28 0xFFFFFFFFFFFFFFFFFFFFFFFFFFFFFFFFFFFFFFFFFFFFFFFFFFFFFFFF DUP4 DUP2 DUP4 AND OR DUP4 MSTORE POP POP POP POP PUSH2 0x1051 JUMP JUMPDEST POP POP POP POP JUMP JUMPDEST PUSH2 0x1045 DUP3 DUP3 PUSH1 0x40 MLOAD PUSH1 0x24 ADD PUSH2 0xFC3 SWAP3 SWAP2 SWAP1 PUSH2 0x236E JUMP JUMPDEST PUSH1 0x40 MLOAD PUSH1 0x20 DUP2 DUP4 SUB SUB DUP2 MSTORE SWAP1 PUSH1 0x40 MSTORE PUSH32 0x319AF33300000000000000000000000000000000000000000000000000000000 PUSH28 0xFFFFFFFFFFFFFFFFFFFFFFFFFFFFFFFFFFFFFFFFFFFFFFFFFFFFFFFF NOT AND PUSH1 0x20 DUP3 ADD DUP1 MLOAD PUSH28 0xFFFFFFFFFFFFFFFFFFFFFFFFFFFFFFFFFFFFFFFFFFFFFFFFFFFFFFFF DUP4 DUP2 DUP4 AND OR DUP4 MSTORE POP POP POP POP PUSH2 0x1119 JUMP JUMPDEST POP POP JUMP JUMPDEST PUSH1 0x0 CALLER SWAP1 POP SWAP1 JUMP JUMPDEST PUSH1 0x0 PUSH2 0x10B3 DUP3 PUSH1 0x40 MLOAD DUP1 PUSH1 0x40 ADD PUSH1 0x40 MSTORE DUP1 PUSH1 0x20 DUP2 MSTORE PUSH1 0x20 ADD PUSH32 0x5361666545524332303A206C6F772D6C6576656C2063616C6C206661696C6564 DUP2 MSTORE POP DUP6 PUSH20 0xFFFFFFFFFFFFFFFFFFFFFFFFFFFFFFFFFFFFFFFF AND PUSH2 0x1142 SWAP1 SWAP3 SWAP2 SWAP1 PUSH4 0xFFFFFFFF AND JUMP JUMPDEST SWAP1 POP PUSH1 0x0 DUP2 MLOAD EQ DUP1 PUSH2 0x10D5 JUMPI POP DUP1 DUP1 PUSH1 0x20 ADD SWAP1 MLOAD DUP2 ADD SWAP1 PUSH2 0x10D4 SWAP2 SWAP1 PUSH2 0x23CA JUMP JUMPDEST JUMPDEST PUSH2 0x1114 JUMPI PUSH1 0x40 MLOAD PUSH32 0x8C379A000000000000000000000000000000000000000000000000000000000 DUP2 MSTORE PUSH1 0x4 ADD PUSH2 0x110B SWAP1 PUSH2 0x2469 JUMP JUMPDEST PUSH1 0x40 MLOAD DUP1 SWAP2 SUB SWAP1 REVERT JUMPDEST POP POP POP JUMP JUMPDEST PUSH1 0x0 DUP2 MLOAD SWAP1 POP PUSH1 0x0 PUSH11 0x636F6E736F6C652E6C6F67 SWAP1 POP PUSH1 0x20 DUP4 ADD PUSH1 0x0 DUP1 DUP5 DUP4 DUP6 GAS STATICCALL POP POP POP POP POP JUMP JUMPDEST PUSH1 0x60 PUSH2 0x1151 DUP5 DUP5 PUSH1 0x0 DUP6 PUSH2 0x115A JUMP JUMPDEST SWAP1 POP SWAP4 SWAP3 POP POP POP JUMP JUMPDEST PUSH1 0x60 DUP3 SELFBALANCE LT ISZERO PUSH2 0x119F JUMPI PUSH1 0x40 MLOAD PUSH32 0x8C379A000000000000000000000000000000000000000000000000000000000 DUP2 MSTORE PUSH1 0x4 ADD PUSH2 0x1196 SWAP1 PUSH2 0x24FB JUMP JUMPDEST PUSH1 0x40 MLOAD DUP1 SWAP2 SUB SWAP1 REVERT JUMPDEST PUSH1 0x0 DUP1 DUP7 PUSH20 0xFFFFFFFFFFFFFFFFFFFFFFFFFFFFFFFFFFFFFFFF AND DUP6 DUP8 PUSH1 0x40 MLOAD PUSH2 0x11C8 SWAP2 SWAP1 PUSH2 0x1F46 JUMP JUMPDEST PUSH1 0x0 PUSH1 0x40 MLOAD DUP1 DUP4 SUB DUP2 DUP6 DUP8 GAS CALL SWAP3 POP POP POP RETURNDATASIZE DUP1 PUSH1 0x0 DUP2 EQ PUSH2 0x1205 JUMPI PUSH1 0x40 MLOAD SWAP2 POP PUSH1 0x1F NOT PUSH1 0x3F RETURNDATASIZE ADD AND DUP3 ADD PUSH1 0x40 MSTORE RETURNDATASIZE DUP3 MSTORE RETURNDATASIZE PUSH1 0x0 PUSH1 0x20 DUP5 ADD RETURNDATACOPY PUSH2 0x120A JUMP JUMPDEST PUSH1 0x60 SWAP2 POP JUMPDEST POP SWAP2 POP SWAP2 POP PUSH2 0x121B DUP8 DUP4 DUP4 DUP8 PUSH2 0x1227 JUMP JUMPDEST SWAP3 POP POP POP SWAP5 SWAP4 POP POP POP POP JUMP JUMPDEST PUSH1 0x60 DUP4 ISZERO PUSH2 0x1289 JUMPI PUSH1 0x0 DUP4 MLOAD SUB PUSH2 0x1281 JUMPI PUSH2 0x1241 DUP6 PUSH2 0x129C JUMP JUMPDEST PUSH2 0x1280 JUMPI PUSH1 0x40 MLOAD PUSH32 0x8C379A000000000000000000000000000000000000000000000000000000000 DUP2 MSTORE PUSH1 0x4 ADD PUSH2 0x1277 SWAP1 PUSH2 0x2567 JUMP JUMPDEST PUSH1 0x40 MLOAD DUP1 SWAP2 SUB SWAP1 REVERT JUMPDEST JUMPDEST DUP3 SWAP1 POP PUSH2 0x1294 JUMP JUMPDEST PUSH2 0x1293 DUP4 DUP4 PUSH2 0x12BF JUMP JUMPDEST JUMPDEST SWAP5 SWAP4 POP POP POP POP JUMP JUMPDEST PUSH1 0x0 DUP1 DUP3 PUSH20 0xFFFFFFFFFFFFFFFFFFFFFFFFFFFFFFFFFFFFFFFF AND EXTCODESIZE GT SWAP1 POP SWAP2 SWAP1 POP JUMP JUMPDEST PUSH1 0x0 DUP3 MLOAD GT ISZERO PUSH2 0x12D2 JUMPI DUP2 MLOAD DUP1 DUP4 PUSH1 0x20 ADD REVERT JUMPDEST DUP1 PUSH1 0x40 MLOAD PUSH32 0x8C379A000000000000000000000000000000000000000000000000000000000 DUP2 MSTORE PUSH1 0x4 ADD PUSH2 0x1306 SWAP2 SWAP1 PUSH2 0x2587 JUMP JUMPDEST PUSH1 0x40 MLOAD DUP1 SWAP2 SUB SWAP1 REVERT JUMPDEST PUSH1 0x0 PUSH1 0x40 MLOAD SWAP1 POP SWAP1 JUMP JUMPDEST PUSH1 0x0 DUP1 REVERT JUMPDEST PUSH1 0x0 DUP1 REVERT JUMPDEST PUSH1 0x0 PUSH32 0xFFFFFFFF00000000000000000000000000000000000000000000000000000000 DUP3 AND SWAP1 POP SWAP2 SWAP1 POP JUMP JUMPDEST PUSH2 0x1358 DUP2 PUSH2 0x1323 JUMP JUMPDEST DUP2 EQ PUSH2 0x1363 JUMPI PUSH1 0x0 DUP1 REVERT JUMPDEST POP JUMP JUMPDEST PUSH1 0x0 DUP2 CALLDATALOAD SWAP1 POP PUSH2 0x1375 DUP2 PUSH2 0x134F JUMP JUMPDEST SWAP3 SWAP2 POP POP JUMP JUMPDEST PUSH1 0x0 PUSH1 0x20 DUP3 DUP5 SUB SLT ISZERO PUSH2 0x1391 JUMPI PUSH2 0x1390 PUSH2 0x1319 JUMP JUMPDEST JUMPDEST PUSH1 0x0 PUSH2 0x139F DUP5 DUP3 DUP6 ADD PUSH2 0x1366 JUMP JUMPDEST SWAP2 POP POP SWAP3 SWAP2 POP POP JUMP JUMPDEST PUSH1 0x0 DUP2 ISZERO ISZERO SWAP1 POP SWAP2 SWAP1 POP JUMP JUMPDEST PUSH2 0x13BD DUP2 PUSH2 0x13A8 JUMP JUMPDEST DUP3 MSTORE POP POP JUMP JUMPDEST PUSH1 0x0 PUSH1 0x20 DUP3 ADD SWAP1 POP PUSH2 0x13D8 PUSH1 0x0 DUP4 ADD DUP5 PUSH2 0x13B4 JUMP JUMPDEST SWAP3 SWAP2 POP POP JUMP JUMPDEST PUSH1 0x0 PUSH20 0xFFFFFFFFFFFFFFFFFFFFFFFFFFFFFFFFFFFFFFFF DUP3 AND SWAP1 POP SWAP2 SWAP1 POP JUMP JUMPDEST PUSH1 0x0 DUP2 SWAP1 POP SWAP2 SWAP1 POP JUMP JUMPDEST PUSH1 0x0 PUSH2 0x1423 PUSH2 0x141E PUSH2 0x1419 DUP5 PUSH2 0x13DE JUMP JUMPDEST PUSH2 0x13FE JUMP JUMPDEST PUSH2 0x13DE JUMP JUMPDEST SWAP1 POP SWAP2 SWAP1 POP JUMP JUMPDEST PUSH1 0x0 PUSH2 0x1435 DUP3 PUSH2 0x1408 JUMP JUMPDEST SWAP1 POP SWAP2 SWAP1 POP JUMP JUMPDEST PUSH1 0x0 PUSH2 0x1447 DUP3 PUSH2 0x142A JUMP JUMPDEST SWAP1 POP SWAP2 SWAP1 POP JUMP JUMPDEST PUSH2 0x1457 DUP2 PUSH2 0x143C JUMP JUMPDEST DUP3 MSTORE POP POP JUMP JUMPDEST PUSH1 0x0 PUSH1 0x20 DUP3 ADD SWAP1 POP PUSH2 0x1472 PUSH1 0x0 DUP4 ADD DUP5 PUSH2 0x144E JUMP JUMPDEST SWAP3 SWAP2 POP POP JUMP JUMPDEST PUSH1 0x0 PUSH2 0x1483 DUP3 PUSH2 0x13DE JUMP JUMPDEST SWAP1 POP SWAP2 SWAP1 POP JUMP JUMPDEST PUSH2 0x1493 DUP2 PUSH2 0x1478 JUMP JUMPDEST DUP3 MSTORE POP POP JUMP JUMPDEST PUSH1 0x0 PUSH1 0x20 DUP3 ADD SWAP1 POP PUSH2 0x14AE PUSH1 0x0 DUP4 ADD DUP5 PUSH2 0x148A JUMP JUMPDEST SWAP3 SWAP2 POP POP JUMP JUMPDEST PUSH2 0x14BD DUP2 PUSH2 0x1478 JUMP JUMPDEST DUP2 EQ PUSH2 0x14C8 JUMPI PUSH1 0x0 DUP1 REVERT JUMPDEST POP JUMP JUMPDEST PUSH1 0x0 DUP2 CALLDATALOAD SWAP1 POP PUSH2 0x14DA DUP2 PUSH2 0x14B4 JUMP JUMPDEST SWAP3 SWAP2 POP POP JUMP JUMPDEST PUSH1 0x0 DUP1 REVERT JUMPDEST PUSH1 0x0 PUSH1 0x1F NOT PUSH1 0x1F DUP4 ADD AND SWAP1 POP SWAP2 SWAP1 POP JUMP JUMPDEST PUSH32 0x4E487B7100000000000000000000000000000000000000000000000000000000 PUSH1 0x0 MSTORE PUSH1 0x41 PUSH1 0x4 MSTORE PUSH1 0x24 PUSH1 0x0 REVERT JUMPDEST PUSH2 0x152E DUP3 PUSH2 0x14E5 JUMP JUMPDEST DUP2 ADD DUP2 DUP2 LT PUSH8 0xFFFFFFFFFFFFFFFF DUP3 GT OR ISZERO PUSH2 0x154D JUMPI PUSH2 0x154C PUSH2 0x14F6 JUMP JUMPDEST JUMPDEST DUP1 PUSH1 0x40 MSTORE POP POP POP JUMP JUMPDEST PUSH1 0x0 PUSH2 0x1560 PUSH2 0x130F JUMP JUMPDEST SWAP1 POP PUSH2 0x156C DUP3 DUP3 PUSH2 0x1525 JUMP JUMPDEST SWAP2 SWAP1 POP JUMP JUMPDEST PUSH1 0x0 PUSH8 0xFFFFFFFFFFFFFFFF DUP3 GT ISZERO PUSH2 0x158C JUMPI PUSH2 0x158B PUSH2 0x14F6 JUMP JUMPDEST JUMPDEST PUSH1 0x20 DUP3 MUL SWAP1 POP PUSH1 0x20 DUP2 ADD SWAP1 POP SWAP2 SWAP1 POP JUMP JUMPDEST PUSH1 0x0 DUP1 REVERT JUMPDEST PUSH1 0x0 DUP2 SWAP1 POP SWAP2 SWAP1 POP JUMP JUMPDEST PUSH2 0x15B5 DUP2 PUSH2 0x15A2 JUMP JUMPDEST DUP2 EQ PUSH2 0x15C0 JUMPI PUSH1 0x0 DUP1 REVERT JUMPDEST POP JUMP JUMPDEST PUSH1 0x0 DUP2 CALLDATALOAD SWAP1 POP PUSH2 0x15D2 DUP2 PUSH2 0x15AC JUMP JUMPDEST SWAP3 SWAP2 POP POP JUMP JUMPDEST PUSH1 0x0 PUSH2 0x15EB PUSH2 0x15E6 DUP5 PUSH2 0x1571 JUMP JUMPDEST PUSH2 0x1556 JUMP JUMPDEST SWAP1 POP DUP1 DUP4 DUP3 MSTORE PUSH1 0x20 DUP3 ADD SWAP1 POP PUSH1 0x20 DUP5 MUL DUP4 ADD DUP6 DUP2 GT ISZERO PUSH2 0x160E JUMPI PUSH2 0x160D PUSH2 0x159D JUMP JUMPDEST JUMPDEST DUP4 JUMPDEST DUP2 DUP2 LT ISZERO PUSH2 0x1637 JUMPI DUP1 PUSH2 0x1623 DUP9 DUP3 PUSH2 0x15C3 JUMP JUMPDEST DUP5 MSTORE PUSH1 0x20 DUP5 ADD SWAP4 POP POP PUSH1 0x20 DUP2 ADD SWAP1 POP PUSH2 0x1610 JUMP JUMPDEST POP POP POP SWAP4 SWAP3 POP POP POP JUMP JUMPDEST PUSH1 0x0 DUP3 PUSH1 0x1F DUP4 ADD SLT PUSH2 0x1656 JUMPI PUSH2 0x1655 PUSH2 0x14E0 JUMP JUMPDEST JUMPDEST DUP2 CALLDATALOAD PUSH2 0x1666 DUP5 DUP3 PUSH1 0x20 DUP7 ADD PUSH2 0x15D8 JUMP JUMPDEST SWAP2 POP POP SWAP3 SWAP2 POP POP JUMP JUMPDEST PUSH1 0x0 DUP1 REVERT JUMPDEST PUSH1 0x0 PUSH8 0xFFFFFFFFFFFFFFFF DUP3 GT ISZERO PUSH2 0x168F JUMPI PUSH2 0x168E PUSH2 0x14F6 JUMP JUMPDEST JUMPDEST PUSH2 0x1698 DUP3 PUSH2 0x14E5 JUMP JUMPDEST SWAP1 POP PUSH1 0x20 DUP2 ADD SWAP1 POP SWAP2 SWAP1 POP JUMP JUMPDEST DUP3 DUP2 DUP4 CALLDATACOPY PUSH1 0x0 DUP4 DUP4 ADD MSTORE POP POP POP JUMP JUMPDEST PUSH1 0x0 PUSH2 0x16C7 PUSH2 0x16C2 DUP5 PUSH2 0x1674 JUMP JUMPDEST PUSH2 0x1556 JUMP JUMPDEST SWAP1 POP DUP3 DUP2 MSTORE PUSH1 0x20 DUP2 ADD DUP5 DUP5 DUP5 ADD GT ISZERO PUSH2 0x16E3 JUMPI PUSH2 0x16E2 PUSH2 0x166F JUMP JUMPDEST JUMPDEST PUSH2 0x16EE DUP5 DUP3 DUP6 PUSH2 0x16A5 JUMP JUMPDEST POP SWAP4 SWAP3 POP POP POP JUMP JUMPDEST PUSH1 0x0 DUP3 PUSH1 0x1F DUP4 ADD SLT PUSH2 0x170B JUMPI PUSH2 0x170A PUSH2 0x14E0 JUMP JUMPDEST JUMPDEST DUP2 CALLDATALOAD PUSH2 0x171B DUP5 DUP3 PUSH1 0x20 DUP7 ADD PUSH2 0x16B4 JUMP JUMPDEST SWAP2 POP POP SWAP3 SWAP2 POP POP JUMP JUMPDEST PUSH1 0x0 DUP1 PUSH1 0x0 DUP1 PUSH1 0x0 PUSH1 0xA0 DUP7 DUP9 SUB SLT ISZERO PUSH2 0x1740 JUMPI PUSH2 0x173F PUSH2 0x1319 JUMP JUMPDEST JUMPDEST PUSH1 0x0 PUSH2 0x174E DUP9 DUP3 DUP10 ADD PUSH2 0x14CB JUMP JUMPDEST SWAP6 POP POP PUSH1 0x20 PUSH2 0x175F DUP9 DUP3 DUP10 ADD PUSH2 0x14CB JUMP JUMPDEST SWAP5 POP POP PUSH1 0x40 DUP7 ADD CALLDATALOAD PUSH8 0xFFFFFFFFFFFFFFFF DUP2 GT ISZERO PUSH2 0x1780 JUMPI PUSH2 0x177F PUSH2 0x131E JUMP JUMPDEST JUMPDEST PUSH2 0x178C DUP9 DUP3 DUP10 ADD PUSH2 0x1641 JUMP JUMPDEST SWAP4 POP POP PUSH1 0x60 DUP7 ADD CALLDATALOAD PUSH8 0xFFFFFFFFFFFFFFFF DUP2 GT ISZERO PUSH2 0x17AD JUMPI PUSH2 0x17AC PUSH2 0x131E JUMP JUMPDEST JUMPDEST PUSH2 0x17B9 DUP9 DUP3 DUP10 ADD PUSH2 0x1641 JUMP JUMPDEST SWAP3 POP POP PUSH1 0x80 DUP7 ADD CALLDATALOAD PUSH8 0xFFFFFFFFFFFFFFFF DUP2 GT ISZERO PUSH2 0x17DA JUMPI PUSH2 0x17D9 PUSH2 0x131E JUMP JUMPDEST JUMPDEST PUSH2 0x17E6 DUP9 DUP3 DUP10 ADD PUSH2 0x16F6 JUMP JUMPDEST SWAP2 POP POP SWAP3 SWAP6 POP SWAP3 SWAP6 SWAP1 SWAP4 POP JUMP JUMPDEST PUSH2 0x17FC DUP2 PUSH2 0x1323 JUMP JUMPDEST DUP3 MSTORE POP POP JUMP JUMPDEST PUSH1 0x0 PUSH1 0x20 DUP3 ADD SWAP1 POP PUSH2 0x1817 PUSH1 0x0 DUP4 ADD DUP5 PUSH2 0x17F3 JUMP JUMPDEST SWAP3 SWAP2 POP POP JUMP JUMPDEST PUSH1 0x0 PUSH1 0xFF DUP3 AND SWAP1 POP SWAP2 SWAP1 POP JUMP JUMPDEST PUSH2 0x1833 DUP2 PUSH2 0x181D JUMP JUMPDEST DUP2 EQ PUSH2 0x183E JUMPI PUSH1 0x0 DUP1 REVERT JUMPDEST POP JUMP JUMPDEST PUSH1 0x0 DUP2 CALLDATALOAD SWAP1 POP PUSH2 0x1850 DUP2 PUSH2 0x182A JUMP JUMPDEST SWAP3 SWAP2 POP POP JUMP JUMPDEST PUSH1 0x0 DUP1 PUSH1 0x0 PUSH1 0x60 DUP5 DUP7 SUB SLT ISZERO PUSH2 0x186F JUMPI PUSH2 0x186E PUSH2 0x1319 JUMP JUMPDEST JUMPDEST PUSH1 0x0 PUSH2 0x187D DUP7 DUP3 DUP8 ADD PUSH2 0x15C3 JUMP JUMPDEST SWAP4 POP POP PUSH1 0x20 PUSH2 0x188E DUP7 DUP3 DUP8 ADD PUSH2 0x15C3 JUMP JUMPDEST SWAP3 POP POP PUSH1 0x40 PUSH2 0x189F DUP7 DUP3 DUP8 ADD PUSH2 0x1841 JUMP JUMPDEST SWAP2 POP POP SWAP3 POP SWAP3 POP SWAP3 JUMP JUMPDEST PUSH1 0x0 PUSH1 0x20 DUP3 DUP5 SUB SLT ISZERO PUSH2 0x18BF JUMPI PUSH2 0x18BE PUSH2 0x1319 JUMP JUMPDEST JUMPDEST PUSH1 0x0 PUSH2 0x18CD DUP5 DUP3 DUP6 ADD PUSH2 0x15C3 JUMP JUMPDEST SWAP2 POP POP SWAP3 SWAP2 POP POP JUMP JUMPDEST PUSH2 0x18DF DUP2 PUSH2 0x15A2 JUMP JUMPDEST DUP3 MSTORE POP POP JUMP JUMPDEST PUSH1 0x0 PUSH1 0x20 DUP3 ADD SWAP1 POP PUSH2 0x18FA PUSH1 0x0 DUP4 ADD DUP5 PUSH2 0x18D6 JUMP JUMPDEST SWAP3 SWAP2 POP POP JUMP JUMPDEST PUSH1 0x0 PUSH2 0x190B DUP3 PUSH2 0x142A JUMP JUMPDEST SWAP1 POP SWAP2 SWAP1 POP JUMP JUMPDEST PUSH2 0x191B DUP2 PUSH2 0x1900 JUMP JUMPDEST DUP3 MSTORE POP POP JUMP JUMPDEST PUSH1 0x0 PUSH1 0x20 DUP3 ADD SWAP1 POP PUSH2 0x1936 PUSH1 0x0 DUP4 ADD DUP5 PUSH2 0x1912 JUMP JUMPDEST SWAP3 SWAP2 POP POP JUMP JUMPDEST PUSH1 0x0 DUP1 PUSH1 0x0 DUP1 PUSH1 0x0 PUSH1 0xA0 DUP7 DUP9 SUB SLT ISZERO PUSH2 0x1958 JUMPI PUSH2 0x1957 PUSH2 0x1319 JUMP JUMPDEST JUMPDEST PUSH1 0x0 PUSH2 0x1966 DUP9 DUP3 DUP10 ADD PUSH2 0x14CB JUMP JUMPDEST SWAP6 POP POP PUSH1 0x20 PUSH2 0x1977 DUP9 DUP3 DUP10 ADD PUSH2 0x14CB JUMP JUMPDEST SWAP5 POP POP PUSH1 0x40 PUSH2 0x1988 DUP9 DUP3 DUP10 ADD PUSH2 0x15C3 JUMP JUMPDEST SWAP4 POP POP PUSH1 0x60 PUSH2 0x1999 DUP9 DUP3 DUP10 ADD PUSH2 0x15C3 JUMP JUMPDEST SWAP3 POP POP PUSH1 0x80 DUP7 ADD CALLDATALOAD PUSH8 0xFFFFFFFFFFFFFFFF DUP2 GT ISZERO PUSH2 0x19BA JUMPI PUSH2 0x19B9 PUSH2 0x131E JUMP JUMPDEST JUMPDEST PUSH2 0x19C6 DUP9 DUP3 DUP10 ADD PUSH2 0x16F6 JUMP JUMPDEST SWAP2 POP POP SWAP3 SWAP6 POP SWAP3 SWAP6 SWAP1 SWAP4 POP JUMP JUMPDEST PUSH1 0x0 PUSH1 0x20 DUP3 DUP5 SUB SLT ISZERO PUSH2 0x19E9 JUMPI PUSH2 0x19E8 PUSH2 0x1319 JUMP JUMPDEST JUMPDEST PUSH1 0x0 PUSH2 0x19F7 DUP5 DUP3 DUP6 ADD PUSH2 0x14CB JUMP JUMPDEST SWAP2 POP POP SWAP3 SWAP2 POP POP JUMP JUMPDEST PUSH1 0x0 DUP1 PUSH1 0x40 DUP4 DUP6 SUB SLT ISZERO PUSH2 0x1A17 JUMPI PUSH2 0x1A16 PUSH2 0x1319 JUMP JUMPDEST JUMPDEST PUSH1 0x0 PUSH2 0x1A25 DUP6 DUP3 DUP7 ADD PUSH2 0x15C3 JUMP JUMPDEST SWAP3 POP POP PUSH1 0x20 PUSH2 0x1A36 DUP6 DUP3 DUP7 ADD PUSH2 0x15C3 JUMP JUMPDEST SWAP2 POP POP SWAP3 POP SWAP3 SWAP1 POP JUMP JUMPDEST PUSH1 0x0 DUP3 DUP3 MSTORE PUSH1 0x20 DUP3 ADD SWAP1 POP SWAP3 SWAP2 POP POP JUMP JUMPDEST PUSH32 0x7072696365206E6F742073657420796574000000000000000000000000000000 PUSH1 0x0 DUP3 ADD MSTORE POP JUMP JUMPDEST PUSH1 0x0 PUSH2 0x1A87 PUSH1 0x11 DUP4 PUSH2 0x1A40 JUMP JUMPDEST SWAP2 POP PUSH2 0x1A92 DUP3 PUSH2 0x1A51 JUMP JUMPDEST PUSH1 0x20 DUP3 ADD SWAP1 POP SWAP2 SWAP1 POP JUMP JUMPDEST PUSH1 0x0 PUSH1 0x20 DUP3 ADD SWAP1 POP DUP2 DUP2 SUB PUSH1 0x0 DUP4 ADD MSTORE PUSH2 0x1AB6 DUP2 PUSH2 0x1A7A JUMP JUMPDEST SWAP1 POP SWAP2 SWAP1 POP JUMP JUMPDEST PUSH32 0x4E487B7100000000000000000000000000000000000000000000000000000000 PUSH1 0x0 MSTORE PUSH1 0x11 PUSH1 0x4 MSTORE PUSH1 0x24 PUSH1 0x0 REVERT JUMPDEST PUSH1 0x0 PUSH2 0x1AF7 DUP3 PUSH2 0x15A2 JUMP JUMPDEST SWAP2 POP PUSH2 0x1B02 DUP4 PUSH2 0x15A2 JUMP JUMPDEST SWAP3 POP DUP2 PUSH32 0xFFFFFFFFFFFFFFFFFFFFFFFFFFFFFFFFFFFFFFFFFFFFFFFFFFFFFFFFFFFFFFFF DIV DUP4 GT DUP3 ISZERO ISZERO AND ISZERO PUSH2 0x1B3B JUMPI PUSH2 0x1B3A PUSH2 0x1ABD JUMP JUMPDEST JUMPDEST DUP3 DUP3 MUL SWAP1 POP SWAP3 SWAP2 POP POP JUMP JUMPDEST PUSH32 0x616D6F756E74206E6F7420656E6F756768000000000000000000000000000000 PUSH1 0x0 DUP3 ADD MSTORE POP JUMP JUMPDEST PUSH1 0x0 PUSH2 0x1B7C PUSH1 0x11 DUP4 PUSH2 0x1A40 JUMP JUMPDEST SWAP2 POP PUSH2 0x1B87 DUP3 PUSH2 0x1B46 JUMP JUMPDEST PUSH1 0x20 DUP3 ADD SWAP1 POP SWAP2 SWAP1 POP JUMP JUMPDEST PUSH1 0x0 PUSH1 0x20 DUP3 ADD SWAP1 POP DUP2 DUP2 SUB PUSH1 0x0 DUP4 ADD MSTORE PUSH2 0x1BAB DUP2 PUSH2 0x1B6F JUMP JUMPDEST SWAP1 POP SWAP2 SWAP1 POP JUMP JUMPDEST PUSH1 0x0 PUSH1 0x40 DUP3 ADD SWAP1 POP PUSH2 0x1BC7 PUSH1 0x0 DUP4 ADD DUP6 PUSH2 0x148A JUMP JUMPDEST PUSH2 0x1BD4 PUSH1 0x20 DUP4 ADD DUP5 PUSH2 0x18D6 JUMP JUMPDEST SWAP4 SWAP3 POP POP POP JUMP JUMPDEST PUSH1 0x0 DUP2 MLOAD SWAP1 POP PUSH2 0x1BEA DUP2 PUSH2 0x15AC JUMP JUMPDEST SWAP3 SWAP2 POP POP JUMP JUMPDEST PUSH1 0x0 PUSH1 0x20 DUP3 DUP5 SUB SLT ISZERO PUSH2 0x1C06 JUMPI PUSH2 0x1C05 PUSH2 0x1319 JUMP JUMPDEST JUMPDEST PUSH1 0x0 PUSH2 0x1C14 DUP5 DUP3 DUP6 ADD PUSH2 0x1BDB JUMP JUMPDEST SWAP2 POP POP SWAP3 SWAP2 POP POP JUMP JUMPDEST PUSH32 0x696E73756666696369656E7420746F6B656E0000000000000000000000000000 PUSH1 0x0 DUP3 ADD MSTORE POP JUMP JUMPDEST PUSH1 0x0 PUSH2 0x1C53 PUSH1 0x12 DUP4 PUSH2 0x1A40 JUMP JUMPDEST SWAP2 POP PUSH2 0x1C5E DUP3 PUSH2 0x1C1D JUMP JUMPDEST PUSH1 0x20 DUP3 ADD SWAP1 POP SWAP2 SWAP1 POP JUMP JUMPDEST PUSH1 0x0 PUSH1 0x20 DUP3 ADD SWAP1 POP DUP2 DUP2 SUB PUSH1 0x0 DUP4 ADD MSTORE PUSH2 0x1C82 DUP2 PUSH2 0x1C46 JUMP JUMPDEST SWAP1 POP SWAP2 SWAP1 POP JUMP JUMPDEST PUSH1 0x0 PUSH1 0x40 DUP3 ADD SWAP1 POP PUSH2 0x1C9E PUSH1 0x0 DUP4 ADD DUP6 PUSH2 0x148A JUMP JUMPDEST PUSH2 0x1CAB PUSH1 0x20 DUP4 ADD DUP5 PUSH2 0x148A JUMP JUMPDEST SWAP4 SWAP3 POP POP POP JUMP JUMPDEST PUSH32 0x696E73756666696369656E7420746F6B656E20617070726F76616C0000000000 PUSH1 0x0 DUP3 ADD MSTORE POP JUMP JUMPDEST PUSH1 0x0 PUSH2 0x1CE8 PUSH1 0x1B DUP4 PUSH2 0x1A40 JUMP JUMPDEST SWAP2 POP PUSH2 0x1CF3 DUP3 PUSH2 0x1CB2 JUMP JUMPDEST PUSH1 0x20 DUP3 ADD SWAP1 POP SWAP2 SWAP1 POP JUMP JUMPDEST PUSH1 0x0 PUSH1 0x20 DUP3 ADD SWAP1 POP DUP2 DUP2 SUB PUSH1 0x0 DUP4 ADD MSTORE PUSH2 0x1D17 DUP2 PUSH2 0x1CDB JUMP JUMPDEST SWAP1 POP SWAP2 SWAP1 POP JUMP JUMPDEST PUSH1 0x0 PUSH2 0x1D39 PUSH2 0x1D34 PUSH2 0x1D2F DUP5 PUSH2 0x181D JUMP JUMPDEST PUSH2 0x13FE JUMP JUMPDEST PUSH2 0x15A2 JUMP JUMPDEST SWAP1 POP SWAP2 SWAP1 POP JUMP JUMPDEST PUSH2 0x1D49 DUP2 PUSH2 0x1D1E JUMP JUMPDEST DUP3 MSTORE POP POP JUMP JUMPDEST PUSH1 0x0 DUP3 DUP3 MSTORE PUSH1 0x20 DUP3 ADD SWAP1 POP SWAP3 SWAP2 POP POP JUMP JUMPDEST POP JUMP JUMPDEST PUSH1 0x0 PUSH2 0x1D70 PUSH1 0x0 DUP4 PUSH2 0x1D4F JUMP JUMPDEST SWAP2 POP PUSH2 0x1D7B DUP3 PUSH2 0x1D60 JUMP JUMPDEST PUSH1 0x0 DUP3 ADD SWAP1 POP SWAP2 SWAP1 POP JUMP JUMPDEST PUSH1 0x0 PUSH1 0xA0 DUP3 ADD SWAP1 POP PUSH2 0x1D9B PUSH1 0x0 DUP4 ADD DUP8 PUSH2 0x148A JUMP JUMPDEST PUSH2 0x1DA8 PUSH1 0x20 DUP4 ADD DUP7 PUSH2 0x148A JUMP JUMPDEST PUSH2 0x1DB5 PUSH1 0x40 DUP4 ADD DUP6 PUSH2 0x18D6 JUMP JUMPDEST PUSH2 0x1DC2 PUSH1 0x60 DUP4 ADD DUP5 PUSH2 0x1D40 JUMP JUMPDEST DUP2 DUP2 SUB PUSH1 0x80 DUP4 ADD MSTORE PUSH2 0x1DD3 DUP2 PUSH2 0x1D63 JUMP JUMPDEST SWAP1 POP SWAP6 SWAP5 POP POP POP POP POP JUMP JUMPDEST PUSH2 0x1DE7 DUP2 PUSH2 0x181D JUMP JUMPDEST DUP3 MSTORE POP POP JUMP JUMPDEST PUSH1 0x0 PUSH1 0x80 DUP3 ADD SWAP1 POP PUSH2 0x1E02 PUSH1 0x0 DUP4 ADD DUP8 PUSH2 0x18D6 JUMP JUMPDEST PUSH2 0x1E0F PUSH1 0x20 DUP4 ADD DUP7 PUSH2 0x18D6 JUMP JUMPDEST PUSH2 0x1E1C PUSH1 0x40 DUP4 ADD DUP6 PUSH2 0x1DDE JUMP JUMPDEST PUSH2 0x1E29 PUSH1 0x60 DUP4 ADD DUP5 PUSH2 0x18D6 JUMP JUMPDEST SWAP6 SWAP5 POP POP POP POP POP JUMP JUMPDEST PUSH32 0x7072696365206E6F7420656E6F75676800000000000000000000000000000000 PUSH1 0x0 DUP3 ADD MSTORE POP JUMP JUMPDEST PUSH1 0x0 PUSH2 0x1E68 PUSH1 0x10 DUP4 PUSH2 0x1A40 JUMP JUMPDEST SWAP2 POP PUSH2 0x1E73 DUP3 PUSH2 0x1E32 JUMP JUMPDEST PUSH1 0x20 DUP3 ADD SWAP1 POP SWAP2 SWAP1 POP JUMP JUMPDEST PUSH1 0x0 PUSH1 0x20 DUP3 ADD SWAP1 POP DUP2 DUP2 SUB PUSH1 0x0 DUP4 ADD MSTORE PUSH2 0x1E97 DUP2 PUSH2 0x1E5B JUMP JUMPDEST SWAP1 POP SWAP2 SWAP1 POP JUMP JUMPDEST PUSH1 0x0 PUSH1 0x60 DUP3 ADD SWAP1 POP PUSH2 0x1EB3 PUSH1 0x0 DUP4 ADD DUP7 PUSH2 0x148A JUMP JUMPDEST PUSH2 0x1EC0 PUSH1 0x20 DUP4 ADD DUP6 PUSH2 0x18D6 JUMP JUMPDEST PUSH2 0x1ECD PUSH1 0x40 DUP4 ADD DUP5 PUSH2 0x18D6 JUMP JUMPDEST SWAP5 SWAP4 POP POP POP POP JUMP JUMPDEST PUSH1 0x0 DUP2 MLOAD SWAP1 POP SWAP2 SWAP1 POP JUMP JUMPDEST PUSH1 0x0 DUP2 SWAP1 POP SWAP3 SWAP2 POP POP JUMP JUMPDEST PUSH1 0x0 JUMPDEST DUP4 DUP2 LT ISZERO PUSH2 0x1F09 JUMPI DUP1 DUP3 ADD MLOAD DUP2 DUP5 ADD MSTORE PUSH1 0x20 DUP2 ADD SWAP1 POP PUSH2 0x1EEE JUMP JUMPDEST PUSH1 0x0 DUP5 DUP5 ADD MSTORE POP POP POP POP JUMP JUMPDEST PUSH1 0x0 PUSH2 0x1F20 DUP3 PUSH2 0x1ED5 JUMP JUMPDEST PUSH2 0x1F2A DUP2 DUP6 PUSH2 0x1EE0 JUMP JUMPDEST SWAP4 POP PUSH2 0x1F3A DUP2 DUP6 PUSH1 0x20 DUP7 ADD PUSH2 0x1EEB JUMP JUMPDEST DUP1 DUP5 ADD SWAP2 POP POP SWAP3 SWAP2 POP POP JUMP JUMPDEST PUSH1 0x0 PUSH2 0x1F52 DUP3 DUP5 PUSH2 0x1F15 JUMP JUMPDEST SWAP2 POP DUP2 SWAP1 POP SWAP3 SWAP2 POP POP JUMP JUMPDEST PUSH32 0x6D696E74206661696C65642E0000000000000000000000000000000000000000 PUSH1 0x0 DUP3 ADD MSTORE POP JUMP JUMPDEST PUSH1 0x0 PUSH2 0x1F93 PUSH1 0xC DUP4 PUSH2 0x1A40 JUMP JUMPDEST SWAP2 POP PUSH2 0x1F9E DUP3 PUSH2 0x1F5D JUMP JUMPDEST PUSH1 0x20 DUP3 ADD SWAP1 POP SWAP2 SWAP1 POP JUMP JUMPDEST PUSH1 0x0 PUSH1 0x20 DUP3 ADD SWAP1 POP DUP2 DUP2 SUB PUSH1 0x0 DUP4 ADD MSTORE PUSH2 0x1FC2 DUP2 PUSH2 0x1F86 JUMP JUMPDEST SWAP1 POP SWAP2 SWAP1 POP JUMP JUMPDEST PUSH32 0x696E636F72726563742073656E64657200000000000000000000000000000000 PUSH1 0x0 DUP3 ADD MSTORE POP JUMP JUMPDEST PUSH1 0x0 PUSH2 0x1FFF PUSH1 0x10 DUP4 PUSH2 0x1A40 JUMP JUMPDEST SWAP2 POP PUSH2 0x200A DUP3 PUSH2 0x1FC9 JUMP JUMPDEST PUSH1 0x20 DUP3 ADD SWAP1 POP SWAP2 SWAP1 POP JUMP JUMPDEST PUSH1 0x0 PUSH1 0x20 DUP3 ADD SWAP1 POP DUP2 DUP2 SUB PUSH1 0x0 DUP4 ADD MSTORE PUSH2 0x202E DUP2 PUSH2 0x1FF2 JUMP JUMPDEST SWAP1 POP SWAP2 SWAP1 POP JUMP JUMPDEST PUSH32 0x7175616E74697479206973207A65726F00000000000000000000000000000000 PUSH1 0x0 DUP3 ADD MSTORE POP JUMP JUMPDEST PUSH1 0x0 PUSH2 0x206B PUSH1 0x10 DUP4 PUSH2 0x1A40 JUMP JUMPDEST SWAP2 POP PUSH2 0x2076 DUP3 PUSH2 0x2035 JUMP JUMPDEST PUSH1 0x20 DUP3 ADD SWAP1 POP SWAP2 SWAP1 POP JUMP JUMPDEST PUSH1 0x0 PUSH1 0x20 DUP3 ADD SWAP1 POP DUP2 DUP2 SUB PUSH1 0x0 DUP4 ADD MSTORE PUSH2 0x209A DUP2 PUSH2 0x205E JUMP JUMPDEST SWAP1 POP SWAP2 SWAP1 POP JUMP JUMPDEST PUSH1 0x0 PUSH1 0x80 DUP3 ADD SWAP1 POP PUSH2 0x20B6 PUSH1 0x0 DUP4 ADD DUP8 PUSH2 0x148A JUMP JUMPDEST PUSH2 0x20C3 PUSH1 0x20 DUP4 ADD DUP7 PUSH2 0x148A JUMP JUMPDEST PUSH2 0x20D0 PUSH1 0x40 DUP4 ADD DUP6 PUSH2 0x18D6 JUMP JUMPDEST PUSH2 0x20DD PUSH1 0x60 DUP4 ADD DUP5 PUSH2 0x18D6 JUMP JUMPDEST SWAP6 SWAP5 POP POP POP POP POP JUMP JUMPDEST PUSH32 0x4F776E61626C653A206E6577206F776E657220697320746865207A65726F2061 PUSH1 0x0 DUP3 ADD MSTORE PUSH32 0x6464726573730000000000000000000000000000000000000000000000000000 PUSH1 0x20 DUP3 ADD MSTORE POP JUMP JUMPDEST PUSH1 0x0 PUSH2 0x2142 PUSH1 0x26 DUP4 PUSH2 0x1A40 JUMP JUMPDEST SWAP2 POP PUSH2 0x214D DUP3 PUSH2 0x20E6 JUMP JUMPDEST PUSH1 0x40 DUP3 ADD SWAP1 POP SWAP2 SWAP1 POP JUMP JUMPDEST PUSH1 0x0 PUSH1 0x20 DUP3 ADD SWAP1 POP DUP2 DUP2 SUB PUSH1 0x0 DUP4 ADD MSTORE PUSH2 0x2171 DUP2 PUSH2 0x2135 JUMP JUMPDEST SWAP1 POP SWAP2 SWAP1 POP JUMP JUMPDEST PUSH32 0x746F6B656E4964206973207A65726F0000000000000000000000000000000000 PUSH1 0x0 DUP3 ADD MSTORE POP JUMP JUMPDEST PUSH1 0x0 PUSH2 0x21AE PUSH1 0xF DUP4 PUSH2 0x1A40 JUMP JUMPDEST SWAP2 POP PUSH2 0x21B9 DUP3 PUSH2 0x2178 JUMP JUMPDEST PUSH1 0x20 DUP3 ADD SWAP1 POP SWAP2 SWAP1 POP JUMP JUMPDEST PUSH1 0x0 PUSH1 0x20 DUP3 ADD SWAP1 POP DUP2 DUP2 SUB PUSH1 0x0 DUP4 ADD MSTORE PUSH2 0x21DD DUP2 PUSH2 0x21A1 JUMP JUMPDEST SWAP1 POP SWAP2 SWAP1 POP JUMP JUMPDEST PUSH32 0x7072696365206973207A65726F00000000000000000000000000000000000000 PUSH1 0x0 DUP3 ADD MSTORE POP JUMP JUMPDEST PUSH1 0x0 PUSH2 0x221A PUSH1 0xD DUP4 PUSH2 0x1A40 JUMP JUMPDEST SWAP2 POP PUSH2 0x2225 DUP3 PUSH2 0x21E4 JUMP JUMPDEST PUSH1 0x20 DUP3 ADD SWAP1 POP SWAP2 SWAP1 POP JUMP JUMPDEST PUSH1 0x0 PUSH1 0x20 DUP3 ADD SWAP1 POP DUP2 DUP2 SUB PUSH1 0x0 DUP4 ADD MSTORE PUSH2 0x2249 DUP2 PUSH2 0x220D JUMP JUMPDEST SWAP1 POP SWAP2 SWAP1 POP JUMP JUMPDEST PUSH1 0x0 PUSH1 0x60 DUP3 ADD SWAP1 POP PUSH2 0x2265 PUSH1 0x0 DUP4 ADD DUP7 PUSH2 0x18D6 JUMP JUMPDEST PUSH2 0x2272 PUSH1 0x20 DUP4 ADD DUP6 PUSH2 0x18D6 JUMP JUMPDEST PUSH2 0x227F PUSH1 0x40 DUP4 ADD DUP5 PUSH2 0x18D6 JUMP JUMPDEST SWAP5 SWAP4 POP POP POP POP JUMP JUMPDEST PUSH32 0x4F776E61626C653A2063616C6C6572206973206E6F7420746865206F776E6572 PUSH1 0x0 DUP3 ADD MSTORE POP JUMP JUMPDEST PUSH1 0x0 PUSH2 0x22BD PUSH1 0x20 DUP4 PUSH2 0x1A40 JUMP JUMPDEST SWAP2 POP PUSH2 0x22C8 DUP3 PUSH2 0x2287 JUMP JUMPDEST PUSH1 0x20 DUP3 ADD SWAP1 POP SWAP2 SWAP1 POP JUMP JUMPDEST PUSH1 0x0 PUSH1 0x20 DUP3 ADD SWAP1 POP DUP2 DUP2 SUB PUSH1 0x0 DUP4 ADD MSTORE PUSH2 0x22EC DUP2 PUSH2 0x22B0 JUMP JUMPDEST SWAP1 POP SWAP2 SWAP1 POP JUMP JUMPDEST PUSH1 0x0 PUSH1 0x60 DUP3 ADD SWAP1 POP PUSH2 0x2308 PUSH1 0x0 DUP4 ADD DUP7 PUSH2 0x148A JUMP JUMPDEST PUSH2 0x2315 PUSH1 0x20 DUP4 ADD DUP6 PUSH2 0x148A JUMP JUMPDEST PUSH2 0x2322 PUSH1 0x40 DUP4 ADD DUP5 PUSH2 0x18D6 JUMP JUMPDEST SWAP5 SWAP4 POP POP POP POP JUMP JUMPDEST PUSH1 0x0 DUP2 MLOAD SWAP1 POP SWAP2 SWAP1 POP JUMP JUMPDEST PUSH1 0x0 PUSH2 0x2340 DUP3 PUSH2 0x232A JUMP JUMPDEST PUSH2 0x234A DUP2 DUP6 PUSH2 0x1A40 JUMP JUMPDEST SWAP4 POP PUSH2 0x235A DUP2 DUP6 PUSH1 0x20 DUP7 ADD PUSH2 0x1EEB JUMP JUMPDEST PUSH2 0x2363 DUP2 PUSH2 0x14E5 JUMP JUMPDEST DUP5 ADD SWAP2 POP POP SWAP3 SWAP2 POP POP JUMP JUMPDEST PUSH1 0x0 PUSH1 0x40 DUP3 ADD SWAP1 POP DUP2 DUP2 SUB PUSH1 0x0 DUP4 ADD MSTORE PUSH2 0x2388 DUP2 DUP6 PUSH2 0x2335 JUMP JUMPDEST SWAP1 POP PUSH2 0x2397 PUSH1 0x20 DUP4 ADD DUP5 PUSH2 0x148A JUMP JUMPDEST SWAP4 SWAP3 POP POP POP JUMP JUMPDEST PUSH2 0x23A7 DUP2 PUSH2 0x13A8 JUMP JUMPDEST DUP2 EQ PUSH2 0x23B2 JUMPI PUSH1 0x0 DUP1 REVERT JUMPDEST POP JUMP JUMPDEST PUSH1 0x0 DUP2 MLOAD SWAP1 POP PUSH2 0x23C4 DUP2 PUSH2 0x239E JUMP JUMPDEST SWAP3 SWAP2 POP POP JUMP JUMPDEST PUSH1 0x0 PUSH1 0x20 DUP3 DUP5 SUB SLT ISZERO PUSH2 0x23E0 JUMPI PUSH2 0x23DF PUSH2 0x1319 JUMP JUMPDEST JUMPDEST PUSH1 0x0 PUSH2 0x23EE DUP5 DUP3 DUP6 ADD PUSH2 0x23B5 JUMP JUMPDEST SWAP2 POP POP SWAP3 SWAP2 POP POP JUMP JUMPDEST PUSH32 0x5361666545524332303A204552433230206F7065726174696F6E20646964206E PUSH1 0x0 DUP3 ADD MSTORE PUSH32 0x6F74207375636365656400000000000000000000000000000000000000000000 PUSH1 0x20 DUP3 ADD MSTORE POP JUMP JUMPDEST PUSH1 0x0 PUSH2 0x2453 PUSH1 0x2A DUP4 PUSH2 0x1A40 JUMP JUMPDEST SWAP2 POP PUSH2 0x245E DUP3 PUSH2 0x23F7 JUMP JUMPDEST PUSH1 0x40 DUP3 ADD SWAP1 POP SWAP2 SWAP1 POP JUMP JUMPDEST PUSH1 0x0 PUSH1 0x20 DUP3 ADD SWAP1 POP DUP2 DUP2 SUB PUSH1 0x0 DUP4 ADD MSTORE PUSH2 0x2482 DUP2 PUSH2 0x2446 JUMP JUMPDEST SWAP1 POP SWAP2 SWAP1 POP JUMP JUMPDEST PUSH32 0x416464726573733A20696E73756666696369656E742062616C616E636520666F PUSH1 0x0 DUP3 ADD MSTORE PUSH32 0x722063616C6C0000000000000000000000000000000000000000000000000000 PUSH1 0x20 DUP3 ADD MSTORE POP JUMP JUMPDEST PUSH1 0x0 PUSH2 0x24E5 PUSH1 0x26 DUP4 PUSH2 0x1A40 JUMP JUMPDEST SWAP2 POP PUSH2 0x24F0 DUP3 PUSH2 0x2489 JUMP JUMPDEST PUSH1 0x40 DUP3 ADD SWAP1 POP SWAP2 SWAP1 POP JUMP JUMPDEST PUSH1 0x0 PUSH1 0x20 DUP3 ADD SWAP1 POP DUP2 DUP2 SUB PUSH1 0x0 DUP4 ADD MSTORE PUSH2 0x2514 DUP2 PUSH2 0x24D8 JUMP JUMPDEST SWAP1 POP SWAP2 SWAP1 POP JUMP JUMPDEST PUSH32 0x416464726573733A2063616C6C20746F206E6F6E2D636F6E7472616374000000 PUSH1 0x0 DUP3 ADD MSTORE POP JUMP JUMPDEST PUSH1 0x0 PUSH2 0x2551 PUSH1 0x1D DUP4 PUSH2 0x1A40 JUMP JUMPDEST SWAP2 POP PUSH2 0x255C DUP3 PUSH2 0x251B JUMP JUMPDEST PUSH1 0x20 DUP3 ADD SWAP1 POP SWAP2 SWAP1 POP JUMP JUMPDEST PUSH1 0x0 PUSH1 0x20 DUP3 ADD SWAP1 POP DUP2 DUP2 SUB PUSH1 0x0 DUP4 ADD MSTORE PUSH2 0x2580 DUP2 PUSH2 0x2544 JUMP JUMPDEST SWAP1 POP SWAP2 SWAP1 POP JUMP JUMPDEST PUSH1 0x0 PUSH1 0x20 DUP3 ADD SWAP1 POP DUP2 DUP2 SUB PUSH1 0x0 DUP4 ADD MSTORE PUSH2 0x25A1 DUP2 DUP5 PUSH2 0x2335 JUMP JUMPDEST SWAP1 POP SWAP3 SWAP2 POP POP JUMP INVALID LOG2 PUSH5 0x6970667358 0x22 SLT KECCAK256 0xAD 0xC9 0xA8 PUSH20 0x4A96FBC85177EBD0727F6B56F076023A3F2326D5 PUSH28 0x9F39B004C98A0D64736F6C6343000810003300000000000000000000 "
		},
		"gasEstimates": {
			"creation": {
				"codeDepositCost": "1939000",
				"executionCost": "infinite",
				"totalCost": "infinite"
			},
			"external": {
				"buyItem(uint256,uint256,uint8)": "infinite",
				"buyTicket()": "infinite",
				"onERC1155BatchReceived(address,address,uint256[],uint256[],bytes)": "infinite",
				"onERC1155Received(address,address,uint256,uint256,bytes)": "infinite",
				"owner()": "2589",
				"renounceOwnership()": "30443",
				"setPrice(uint256,uint256)": "infinite",
				"snowmenGame()": "infinite",
				"snowmenToken()": "infinite",
				"supportsInterface(bytes4)": "728",
				"tokenPrice(uint256)": "infinite",
				"transferOwnership(address)": "30832"
			}
		},
		"methodIdentifiers": {
			"buyItem(uint256,uint256,uint8)": "d407cee7",
			"buyTicket()": "edca914c",
			"onERC1155BatchReceived(address,address,uint256[],uint256[],bytes)": "bc197c81",
			"onERC1155Received(address,address,uint256,uint256,bytes)": "f23a6e61",
			"owner()": "8da5cb5b",
			"renounceOwnership()": "715018a6",
			"setPrice(uint256,uint256)": "f7d97577",
			"snowmenGame()": "ea75aa8f",
			"snowmenToken()": "2c1449e1",
			"supportsInterface(bytes4)": "01ffc9a7",
			"tokenPrice(uint256)": "d4ddce8a",
			"transferOwnership(address)": "f2fde38b"
		}
	},
	"abi": [
		{
			"inputs": [
				{
					"internalType": "address",
					"name": "snowmenErc1155",
					"type": "address"
				},
				{
					"internalType": "address",
					"name": "snowmenErc20",
					"type": "address"
				}
			],
			"stateMutability": "nonpayable",
			"type": "constructor"
		},
		{
			"anonymous": false,
			"inputs": [
				{
					"indexed": true,
					"internalType": "address",
					"name": "buyer",
					"type": "address"
				},
				{
					"indexed": false,
					"internalType": "uint256",
					"name": "tokenId",
					"type": "uint256"
				},
				{
					"indexed": false,
					"internalType": "uint256",
					"name": "amount",
					"type": "uint256"
				},
				{
					"indexed": false,
					"internalType": "uint8",
					"name": "quantity",
					"type": "uint8"
				},
				{
					"indexed": false,
					"internalType": "uint256",
					"name": "timestamp",
					"type": "uint256"
				}
			],
			"name": "BuyItem",
			"type": "event"
		},
		{
			"anonymous": false,
			"inputs": [
				{
					"indexed": true,
					"internalType": "address",
					"name": "buyer",
					"type": "address"
				},
				{
					"indexed": false,
					"internalType": "uint256",
					"name": "timestamp",
					"type": "uint256"
				}
			],
			"name": "BuyTicker",
			"type": "event"
		},
		{
			"anonymous": false,
			"inputs": [
				{
					"indexed": true,
					"internalType": "address",
					"name": "previousOwner",
					"type": "address"
				},
				{
					"indexed": true,
					"internalType": "address",
					"name": "newOwner",
					"type": "address"
				}
			],
			"name": "OwnershipTransferred",
			"type": "event"
		},
		{
			"anonymous": false,
			"inputs": [
				{
					"indexed": false,
					"internalType": "uint256",
					"name": "tokenId",
					"type": "uint256"
				},
				{
					"indexed": false,
					"internalType": "uint256",
					"name": "price",
					"type": "uint256"
				},
				{
					"indexed": false,
					"internalType": "uint256",
					"name": "timestamp",
					"type": "uint256"
				}
			],
			"name": "SetPrice",
			"type": "event"
		},
		{
			"anonymous": false,
			"inputs": [
				{
					"indexed": false,
					"internalType": "address",
					"name": "operator",
					"type": "address"
				},
				{
					"indexed": false,
					"internalType": "address",
					"name": "from",
					"type": "address"
				},
				{
					"indexed": false,
					"internalType": "uint256",
					"name": "id",
					"type": "uint256"
				},
				{
					"indexed": false,
					"internalType": "uint256",
					"name": "value",
					"type": "uint256"
				}
			],
			"name": "onERC1155ReceivedExecuted",
			"type": "event"
		},
		{
			"inputs": [
				{
					"internalType": "uint256",
					"name": "tokenId",
					"type": "uint256"
				},
				{
					"internalType": "uint256",
					"name": "amount",
					"type": "uint256"
				},
				{
					"internalType": "uint8",
					"name": "quantity",
					"type": "uint8"
				}
			],
			"name": "buyItem",
			"outputs": [],
			"stateMutability": "nonpayable",
			"type": "function"
		},
		{
			"inputs": [],
			"name": "buyTicket",
			"outputs": [],
			"stateMutability": "payable",
			"type": "function"
		},
		{
			"inputs": [
				{
					"internalType": "address",
					"name": "",
					"type": "address"
				},
				{
					"internalType": "address",
					"name": "",
					"type": "address"
				},
				{
					"internalType": "uint256[]",
					"name": "",
					"type": "uint256[]"
				},
				{
					"internalType": "uint256[]",
					"name": "",
					"type": "uint256[]"
				},
				{
					"internalType": "bytes",
					"name": "",
					"type": "bytes"
				}
			],
			"name": "onERC1155BatchReceived",
			"outputs": [
				{
					"internalType": "bytes4",
					"name": "",
					"type": "bytes4"
				}
			],
			"stateMutability": "nonpayable",
			"type": "function"
		},
		{
			"inputs": [
				{
					"internalType": "address",
					"name": "operator",
					"type": "address"
				},
				{
					"internalType": "address",
					"name": "from",
					"type": "address"
				},
				{
					"internalType": "uint256",
					"name": "id",
					"type": "uint256"
				},
				{
					"internalType": "uint256",
					"name": "value",
					"type": "uint256"
				},
				{
					"internalType": "bytes",
					"name": "",
					"type": "bytes"
				}
			],
			"name": "onERC1155Received",
			"outputs": [
				{
					"internalType": "bytes4",
					"name": "",
					"type": "bytes4"
				}
			],
			"stateMutability": "nonpayable",
			"type": "function"
		},
		{
			"inputs": [],
			"name": "owner",
			"outputs": [
				{
					"internalType": "address",
					"name": "",
					"type": "address"
				}
			],
			"stateMutability": "view",
			"type": "function"
		},
		{
			"inputs": [],
			"name": "renounceOwnership",
			"outputs": [],
			"stateMutability": "nonpayable",
			"type": "function"
		},
		{
			"inputs": [
				{
					"internalType": "uint256",
					"name": "tokenId",
					"type": "uint256"
				},
				{
					"internalType": "uint256",
					"name": "price",
					"type": "uint256"
				}
			],
			"name": "setPrice",
			"outputs": [],
			"stateMutability": "nonpayable",
			"type": "function"
		},
		{
			"inputs": [],
			"name": "snowmenGame",
			"outputs": [
				{
					"internalType": "contract IERC1155",
					"name": "",
					"type": "address"
				}
			],
			"stateMutability": "view",
			"type": "function"
		},
		{
			"inputs": [],
			"name": "snowmenToken",
			"outputs": [
				{
					"internalType": "contract IERC20",
					"name": "",
					"type": "address"
				}
			],
			"stateMutability": "view",
			"type": "function"
		},
		{
			"inputs": [
				{
					"internalType": "bytes4",
					"name": "interfaceId",
					"type": "bytes4"
				}
			],
			"name": "supportsInterface",
			"outputs": [
				{
					"internalType": "bool",
					"name": "",
					"type": "bool"
				}
			],
			"stateMutability": "view",
			"type": "function"
		},
		{
			"inputs": [
				{
					"internalType": "uint256",
					"name": "",
					"type": "uint256"
				}
			],
			"name": "tokenPrice",
			"outputs": [
				{
					"internalType": "uint256",
					"name": "",
					"type": "uint256"
				}
			],
			"stateMutability": "view",
			"type": "function"
		},
		{
			"inputs": [
				{
					"internalType": "address",
					"name": "newOwner",
					"type": "address"
				}
			],
			"name": "transferOwnership",
			"outputs": [],
			"stateMutability": "nonpayable",
			"type": "function"
		}
	]
}